:020000040800F2
:10000000D053002045030008CF410008773800088E
:10001000CD4100084D1B0008A1470008000000006A
:100020000000000000000000000000008502000841
:10003000251C000800000000E1020008D94100086A
:100040005F0300085F0300085F0300085F03000808
:100050005F0300085F0300085F0300085F030008F8
:100060005F0300085F0300085F0300085F030008E8
:100070005F030008691B00085F030008751B000888
:100080005F0300085F0300085F0300085F030008C8
:10009000511B00085F0300085F0300085F030008AE
:1000A0005F030008994200085F0300085F0300082F
:1000B0005F0300085F0300085F0300085F03000898
:1000C0005F0300085F0300085F0300085F03000888
:1000D0005F0300085F0300085F0300085F03000878
:1000E0005F0300085F0300085F0300085F03000868
:1000F0005F0300085F0300085F0300085F03000858
:100100005F0300085F0300085F0300085F03000847
:10011000754300085F0300085F0300085F030008E1
:100120005F0300085F0300085F0300085F03000827
:100130005F03000800000000000000005F030008EB
:100140005D1B00085F0300085F0300085F030008F1
:100150005F0300085F0300085F0300085F030008F7
:100160005F0300085F0300085F0300085F030008E7
:100170005F0300085F0300080000000000000000AB
:100180005F0300085F03000800F002F800F06AF85F
:100190000AA090E8000C82448344AAF10107DA45E2
:1001A00001D100F05FF8AFF2090EBAE80F0013F0CA
:1001B000010F18BFFB1A43F001031847C06F00007E
:1001C000E06F00000A444FF0000C10F8013B13F000
:1001D000070408BF10F8014B1D1108BF10F8015BA0
:1001E000641E05D010F8016B641E01F8016BF9D193
:1001F00013F0080F1EBF10F8014BAD1C0C1B09D1EA
:100200006D1E58BF01F801CBFAD505E014F8016B5B
:1002100001F8016B6D1EF9D59142D6D370470000ED
:100220000023002400250026103A28BF78C1FBD8FF
:10023000520728BF30C148BF0B6070471FB506F09A
:100240005BFE00F0C7FA04000020002106F036FC37
:10025000401C60600020002106F046FCE0601FBDED
:1002600010B510BD00F01AFB1146FFF7E7FF04F0D0
:100270007BFC00F06CFB03B4FFF7F2FF03BC00F063
:10028000EBFD00002C4B19680868B0E8F04F80F3D4
:100290000988BFF36F8F4FF0000080F3118870471B
:1002A0000000000008480068006880F308884FF0EC
:1002B000000080F3148862B661B6BFF34F8FBFF3BE
:1002C0006F8F00DF00BF00BF08ED00E0DFF80C001B
:1002D000016841F470010160704700BF88ED00E0E3
:1002E000EFF30980BFF36F8F134B1A681EF0100FE6
:1002F00008BF20ED108A20E9F04F106009B44FF0DC
:10030000500080F31188BFF34F8FBFF36F8F05F05C
:100310002FFE4FF0000080F3118809BC19680868AF
:10032000B0E8F04F1EF0100F08BFB0EC108A80F359
:100330000988BFF36F8F7047BC000020EFF3058082
:10034000704700000948804709480047FEE7FEE77C
:10035000FEE7FEE7FEE7FEE7FEE7FEE7FEE7FEE775
:1003600004480549054A064B7047000089420008C9
:1003700089010008D04D0020D0530020D04F00202C
:10038000D04F002053EA020C00F069802DE9F04BB9
:100390004FF00006002B1FBFB3FA83F503FA05F4F4
:1003A00024FA05F65E4012BF1643B2FA82F502FA4D
:1003B00005F4C5F120051EBF22FA05FC44EA0C0431
:1003C000203556EA044C4FEA144418BF641C4FF021
:1003D00000084FF00009904271EB030C39D300295B
:1003E00019BFB1FA81F701FA07F6B0FA80F700FAFF
:1003F00007F6C7F120071EBF20FA07FC46EA0C06E5
:100400002037B6FBF4FCA7EB0507103F07F01F0BE6
:10041000CBF120060CFA0BFB2CFA06F644BFB346D0
:100420000026202FA4BF5E464FF0000B5BEA060CAF
:1004300008BF4FF0010B19EB0B09ABFB027C48EB3B
:100440000608C01B06FB02CC0BFB03CC71EB0C01B6
:10045000C1E70B46024641464846BDE8F08B13B55E
:100460004FF000004FF00001AFF30080BDE81C40EA
:1004700070472DE9F05F93460F46804604460026FC
:1004800000F044F9D0F80090824614F8015B2DB1D9
:1004900000F034F90068405DC007F6D12B2D02D082
:1004A0002D2D1AD0641E0021CAF800105A46394674
:1004B000204600F02FF9014627B13868A04201D14B
:1004C000C7F80080DAF80000022809D0CAF80090C6
:1004D000700505D54842BDE8F09F46F48066E2E726
:1004E0000846F8E7032A40F2308010F0030C00F0D1
:1004F000158011F8013BBCF1020F624498BF11F85E
:1005000001CB00F8013B38BF11F8013BA2F1040216
:1005100098BF00F801CB38BF00F8013B11F003038E
:1005200000F02580083AC0F0088051F8043B083AF2
:1005300051F804CBA0E80810F5E7121D5CBF51F894
:10054000043B40F8043BAFF30080D20724BF11F80E
:10055000013B11F801CB48BF11F8012B24BF00F873
:10056000013B00F801CB48BF00F8012B704710B5E4
:10057000203AC0F00B80B1E81850203AA0E818509B
:10058000B1E81850A0E81850BFF4F5AF5FEA027C5C
:1005900024BFB1E81850A0E8185044BF18C918C0CB
:1005A000BDE810405FEA827C24BF51F8043B40F86C
:1005B000043B08BF7047D20728BF31F8023B48BF51
:1005C00011F8012B28BF20F8023B48BF00F8012B8F
:1005D000704702F0FF0343EA032242EA024200F0BE
:1005E00002B84FF000020429C0F0128010F0030C92
:1005F00000F01B80CCF1040CBCF1020F18BF00F816
:10060000012BA8BF20F8022BA1EB0C0100F00DB8C4
:100610005FEAC17C24BF00F8012B00F8012B48BF22
:1006200000F8012B70474FF0000200B513469446C6
:100630009646203922BFA0E80C50A0E80C50B1F13A
:100640002001BFF4F7AF090728BFA0E80C5048BF4E
:100650000CC05DF804EB890028BF40F8042B08BFEC
:10066000704748BF20F8022B11F0804F18BF00F8E8
:10067000012B70474FF0013C50F8042B51F8043B1C
:100680009A4221D1A2EB0C03934313EACC1317D166
:1006900050F8042B51F8043B9A4215D1A2EB0C03FD
:1006A000934313EACC130BD150F8042B51F8043BBD
:1006B0009A4209D1A2EB0C03934313EACC13DBD08B
:1006C0004FF00000704700BFD01A01BAB1FA81F1B3
:1006D00001F0180122FA01F0CB40C1F12001DBB298
:1006E000C0B2C01A2CFA01F3D11A914311EAC31116
:1006F000E6D17047704770477047000010B500F0B2
:1007000069F8001D10BD00BFB563000000487047C8
:10071000704D00202DE9F05F824615468B4600277C
:100720000AF10104B9460078302801D09DB113E0E8
:1007300014F8010B0127782803D0582801D045B1BF
:100740000AE00DB1102D07D1002714F8010B102578
:1007500002E0082500E00A250026B0460EE005FB71
:10076000080005FB06F101271FFA80F801EB10468F
:10077000B6F5803F00D3B94614F8010B294600F0C6
:100780002DF80028EBDABBF1000F05D00FB1641E85
:1007900000E05446CBF80040B9F1000F06D0FFF757
:1007A000B5FF02210160C81EBDE8F09F48EA06407F
:1007B000FAE77CB5054600236846CDE9003300F032
:1007C00039F86946284604F013F97CBD00487047A3
:1007D000704D002000487047904D00203A2800D20C
:1007E000303820F02002412A01D3A2F1370088429C
:1007F00001D34FF0FF3070470FB4002300B589B02C
:100800000CA900910B99CB60214B7B440693214BA3
:100810007B44079304236FF00042CDE901321E4A66
:100820007A446B4608920246002006F0D2FB09B0DB
:100830005DF814FB70B506464FF0FF3015460C46C8
:10084000324686B00091CDE901016946002004904E
:1008500004A8FFF7D1FF02460498211825B108B17A
:10086000084600E020462860049800280DD0002AA1
:1008700002DD0098884208D03246081B6946009481
:10088000CDE9010404A8FFF7B7FF06B070BD000072
:100890000101000019010000D90000007546FFF7B2
:1008A00095FFAE4605006946534620F00700854691
:1008B00018B020B5FFF754FDBDE820404FF000060A
:1008C0004FF000074FF000084FF0000B21F0070138
:1008D000AC46ACE8C009ACE8C009ACE8C009ACE87B
:1008E000C0098D46704710B5FFF710FF006810BDB6
:1008F00010B50446FFF70AFF046010BD10B50446AA
:10090000FFF7FCFE0068005D00F0010010BD4268CA
:1009100042B1016811F8013B23B1521EC0E9001237
:10092000184670470121C160881E704742685AB15D
:10093000C368016843B983688B4205D0491E521CC5
:10094000C0E90012002070474FF0FF30704710B52B
:100950000446AFF300802046BDE81040FFF78BBC93
:100960002DE9FF4F06468BB00878FF2806D0491CBA
:100970002D2805D000244FF0000908E000200CE0ED
:100980000124F8E709EB8903491C00EB43090878C7
:10099000FF28F7D114B1C9F1000081461078002575
:1009A0002C46AA4629462D2801D02B2804D1521CBA
:1009B0002D2813D0002082468B461078FF280FD0B8
:1009C0004FF0000C0A21521CA5FB017804FB0181A9
:1009D00005FB0C11C5194BEB0104EEE70120EAE71A
:1009E000002108464FF00000BAF1000F02D000EBE2
:1009F00080004008C0F38157012F01DD4FF0FF3721
:100A00000E9955EA040009EB01080BD04FF00209DA
:100A100018F5FA7F16DA4FEACA70002F706008DD09
:100A2000012007E04FEACA70C6E900B00FB0BDE888
:100A3000F08F00203060FFF769FEC0F800901821A9
:100A4000084616E0B8F5FA7F18DD002F02DAF748FD
:100A5000784401E0F6487844D0E90010C6E9001077
:100A600040EACA707060FFF751FEC0F80090142190
:100A700008460FB0BDE8F04F06F048BA002108461E
:100A80004FF00000B8F10001099002DAC7F100024E
:100A900000E03A4601DAC8F1000106A800F0E2F9E8
:100AA00006AB93E8070003AB83E8070044F23E007F
:100AB0005BEA04010090584604D144F21E012C4622
:100AC0005D460091210C0904014306D100992404DC
:100AD00044EA15442D041039009104F07F4101438C
:100AE00006D10099240244EA15642D0208390091C8
:100AF00004F07041014306D10099240144EA1574C1
:100B00002D01091F009104F04041014306D10099D5
:100B1000A40044EA9574AD00891E009104F00041E0
:100B2000084304D100986D196441401E00904FF0B5
:100B300001033A466846B8F1000FCDE9014503A923
:100B400002DD00F0CCFE01E000F09FFEBAF1000FE4
:100B500004460D4601D084F00044002108464FF0C1
:100B60000000099940F2FF77484010F00C0F07D1C0
:100B700024F00040284303D0C4F30A50B84212D1F5
:100B8000FFF7C4FDC0F80090C4F30A50B8420AD180
:100B9000A8487844D0E90010C6E9001004F00041EC
:100BA0000843706042E7C6E900543FE72DE9FF4F74
:100BB0001F464FF0000A4FF0FF38454691B0D7E985
:100BC0000146CDF83CA0FFF705FEC0680168405C17
:100BD0001090B96912986D1C8847396A8146884718
:100BE0000028F6D1B9F1FF3F0AD0002E24F4D064DA
:100BF00011DDB9F12B0F08D0B9F12D0F0BD102E0A7
:100C0000404615B013E744F48064B96912986D1C2E
:100C10008847761E8146600504A901D52D2000E095
:100C20002B20002E01F1010B0DF130088DF8100082
:100C30003FDDB9F1690F08D0B9F1490F05D0B9F11D
:100C40006E0F02D0B9F14E0F1CD13B4601A80095A2
:100C500080E85002DDE912126FF0020006F0BDF9E3
:100C6000C11CCED10EE0B96912986D1C884781462F
:100C70001398761E44F4007405600F98401C002EF3
:100C80000F9016DDB9F1300FEDD0B9F1780F02D029
:100C9000B9F1580F0DD10F9801280AD13B46CDE983
:100CA0000054DDE91212001F029606F094F9C11CEF
:100CB000A7D1109989453ED144F0800406E01399EC
:100CC000681CAAF1010A44F400740860B9696D1C3B
:100CD0001298761E884730288146F0D02BE0109974
:100CE000894505D1200603D4761E44F0800418E01F
:100CF000484603F090FE08B3761E0DF123018B45A4
:100D000044F4007408D2A9F130000BF8010B20065E
:100D100007D5AAF1010003E0200602D40AF1010080
:100D20008246A00502D51399681C0860B96912981B
:100D30006D1C88478146002ED1DC53E0002E51DD2A
:100D4000B9F1650F02D0B9F1450F4BD1A00549D5D6
:100D5000B9696D1C1298761E24F440748847002EE1
:100D600081460CDD2B2804D0B9F12D0F07D144F4B6
:100D70008074B96912986D1C8847761E8146E0051B
:100D800001D52D2100E02B2108F8011BCDF80080B2
:100D900021E0761E0DF13901884544F400740CD22F
:100DA000A9F1300010F0FF0088F8000002D100998E
:100DB000884509D908F1010806E0E00501D51E487B
:100DC00001E042F20F708246B96912986D1C8847A3
:100DD000814613980560002E04DD484603F01BFE93
:100DE0000028D6D1F96912988847FF2053468BF81E
:100DF000000088F8000000200A900B9004AA0CA9BB
:100E00000AA8FFF7ADFDA00502D46FF00100F8E6D7
:100E100014F0240F12D0E0071CD13868DDE90A1263
:100E2000031D3B600068C0E9001213E0506700003A
:100E30004267000006660000F1D8FFFF0AA9684675
:100E400003F0D6FDE00705D13868009A011D39602E
:100E5000006802602846D4E601491820ABBEFEE7D0
:100E6000260002002DE9F047814616468AB0354833
:100E700078440DC88DE80D0032487844801C03ACDE
:100E80000DC884E80D0041F69B300844372190FBE3
:100E9000F1F290FBF1F5A5F1800501FB12041B3C7A
:100EA00002D56442012000E00020DFF898A08046CF
:100EB0000027FA44AAF1BE0A0EE0E0070AD0324643
:100EC000684607EB470101230AEB810100F0F2FCC1
:100ED0008DE8070064107F1C002CEED1194F7F4471
:100EE000AE3F19E0E80715D007EB04100DF1180A22
:100EF00090E80E008AE80E00C068F04201D198190F
:100F000008903246012306A903A800F0D3FC03ABE6
:100F100083E807006D10641C002DE3D14FF001033E
:100F200032466946B8F1000F03A802D000F098FCE1
:100F300001E000F0BFFCC9E90001C9F808200AB0CF
:100F4000BDE8F087C0620000704700002DE9FF4F48
:100F50001F464FF03C0987B04FF00042DDE9141006
:100F600001F10108DDF858A002EA4050039000208A
:100F700005908346054604460490B969461E0898C4
:100F80008847AAF1010A0290BAF1000F3BDD0298EE
:100F90002E2815D01021FFF721FC00282EDB4FF062
:100FA000010B0599014317D0B9F1000F0BDB4A463D
:100FB000C11700F0F5F905430C43A9F1040905E058
:100FC000012004900BE008B145F0010501200590D7
:100FD000049820B9361D02E0049800B1361FB969A3
:100FE000089808F101088847BBF1000FAAF1010A2F
:100FF0000290C9D00999C1F80080C5E7029870280D
:1010000008D0502806D0F96908988847BBF1000F2E
:1010100014D04FE0002002900120BBF1000F04909B
:1010200009D0B969089808F101088847AAF10109AF
:10103000B9F1000F07DCF969089888476FF00100E3
:101040000BB0BDE8F08F2B2804D02D280CD14FF029
:10105000FF300490B969089808F101088847A9F1A0
:101060000109B9F1000FE6DD411CE4D00A21FFF7C8
:10107000B5FB0028DFDB029908F1010801EB8101D3
:1010800000EB41000290B969089888470A21FFF7F0
:10109000A5FB099AA9F10109B9F1000FC2F8008076
:1010A00001DD0028E7DAF969089888470499029871
:1010B00000FB016655EA040004D004F04041090039
:1010C00002D006E0039898E0A40044EA9574AD00CD
:1010D000B61E04F00041080002D16D196441761E6D
:1010E000159810F0240F03D04FF00B095C4803E073
:1010F0004FF028096FF07D008246564507DAAAEBCB
:1011000006018944B9F1410F01DD4FF04109012089
:101110000021A9F1010200F043F9024628400B46E4
:101120002140084301D0012100E00021501E02911E
:1011300043F1FF3128402140084301D0012000E065
:1011400000200299834651EA0B014FD00021084646
:101150004FF00000039900F4400039B100EB80002B
:101160004FF4400100EBD07001EA600080150128C7
:1011700002DD4FF0FF3000E013D0401C36D0029863
:1011800060B3BBF1000F0CD14A460120002100F0F2
:1011900007F928402140084301D0012000E0002049
:1011A000E0B101204A46002100F0FAF80346401958
:1011B0000A4661412D1A8C4111D3B9F1400F09DD66
:1011C000159810F0240F02D0AAF1340603E0AAF11A
:1011D000170600E0761C00254FF0004406E05B1E79
:1011E00042F1FF3220EA030521EA0204CAF10100BC
:1011F000B04206DA1B490398084301900020009092
:101200000EE0039AC4F3D321E80A0A43164940EAE0
:1012100044500A433146CDE90002684603F0F1FB31
:10122000159810F0240F0BD01598C00715D1386809
:10123000DDE90012031D3B600068C0E900120CE00C
:1012400002A8694603F0D4FB1598C00705D1386899
:10125000029A011D3960006802604046F0E6000015
:1012600002FCFFFF0000F07F0000F03F2DE9FF4F80
:1012700092461D4685B04FF00041DDE9124BDDE995
:1012800014727F1E01EA4B50414940F0FF4940EA89
:101290000108002122F020004928049102D04E28A4
:1012A00028D04CE03BA0012607C88DE80700A969BB
:1012B0000698641C88477F1E014606D41DF8060068
:1012C00018B121F0200181420BD0E96906988847C6
:1012D000032E34D0082E32D06FF0010009B0BDE8E3
:1012E000F08F761C032E01D0082EE0D1601CCAF8C6
:1012F0000000DCE7A9690698641C88477F1E2AD491
:1013000020F02000412826D1A9690698641C88474E
:101310007F1E20D420F020004E281CD1A9690698F9
:10132000641C88477F1E48F4002849F48009CAF8E5
:10133000004001D4282806D0E969069888475FEA6A
:10134000CB7012D022E0A9690698641C88477F1EE2
:1013500001D4002803DAE96906988847BCE7292800
:10136000F1D1641CCAF80040E9E71BF0240F07D054
:1013700028680499031D2B600068C0E9001805E087
:101380002868021D2A600068C0F800902046A5E782
:101390000000F07F494E46494E4954590000000074
:1013A000B2F120030AD5C2F1200301FA02F120FABA
:1013B00003F300FA02F041EA0301704700FA03F177
:1013C0004FF00000704720F07F4C80EA030023F0CC
:1013D0007F47ACEB070303F57C5300F0004003F1BB
:1013E000FF032DE980494FEA154B09B44FEA144336
:1013F00025EA0B4E24EA03480FF2042606EB1327D6
:1014000049083E785FEA320203FB0667C7F500072A
:1014100007FB06F64FEA54374FEAD64606F10206B6
:1014200007FB066CCCF1005C4FEA1C472CEA074C2A
:1014300007FB06F40CFB06F504EB15464FEA96167F
:1014400034BF00204FF000404FEAD13706FB07FCC5
:101450004FEA1C4C0CFB0BF7D21B03FB0CF761EBA8
:1014600007010CFB0EF7B0EB074072EB17420CFBC9
:1014700008F734BFA2EB0742B2EB074261EB17411A
:101480004FEA0C444FEA910706FB07FC4FEA1C4C5D
:101490000CFB0BF7B0EBC74072EB573203FB0CF7BA
:1014A00034BFA2EBC742B2EBC74261EB57310CFB32
:1014B0000EF7B0EBC70072EB57720CFB08F734BFA6
:1014C000A2EBC702B2EBC70261EB5771039F4FEA71
:1014D000816141EA921104EBCC044FEAD1374FEA23
:1014E000826206FB07FC42EA90124FEA80604FEAF4
:1014F0001C4C0CFB0BF7D21B03FB0CF761EB070139
:101500000CFB0EF7B0EB074072EB17420CFB08F731
:1015100034BFA2EB0742B2EB074261EB17414FEA3F
:101520008C554FEA910704EB9C2406FB07FC4FEA1D
:101530001C4C0CFB0BF7B0EBC74072EB573203FBB4
:101540000CF734BFA2EBC742B2EBC74261EB573195
:101550000CFB0EF7B0EBC70072EB57720CFB08F7F1
:1015600034BFA2EBC702B2EBC70261EB577115EBB8
:101570004C254FEA816141EA92114FEA82624FEABB
:10158000D13742EA901206FB07FC44F100044FEA0F
:1015900080604FEA1C4C0CFB0BF7D21B03FB0CF7D3
:1015A00061EB07010CFB0EF7B0EB074072EB174243
:1015B0000CFB08F734BFA2EB0742B2EB074261EB2A
:1015C000174115EB1C154FEA813141EA92414FEA70
:1015D000823242EA90424FEA80304FEA0C7644F180
:1015E000000448EA03434EEA0B484FF0000EB2EB0A
:1015F000080C71EB030724BF624639464EEB0E0E12
:101600004FF0000B0018524149414BEB0B0BB2EB72
:10161000080C71EB03077BF1000B24BF62463946CF
:101620004EEB0E0E4FF0000B0018524149414BEBB0
:101630000B0BB2EB080C71EB03077BF1000B24BF23
:10164000624639464EEB0E0E51EA020718BF46F0CD
:10165000010616EB0E7655F1000254F1000103D598
:10166000BDE88901BDE80088BDE88901BDE8004802
:10167000B619524141EB0101A3F10103704780808B
:101680007F7E7D7C7B7A79787776767574737271DC
:1016900071706F6E6E6D6C6C6B6A6A696868676694
:1016A00066656464636362616160605F5F5E5E5D26
:1016B0005D5C5C5B5B5A5A5959585857575656559A
:1016C00055555454535352525251515050504F4FFC
:1016D0004F4E4E4D4D4D4C4C4C4B4B4B4A4A4A494C
:1016E000494948484847474747464646454545448F
:1016F0004444444343434342424242414141000047
:1017000046EA0646A3F570534FEA164646EA4256A5
:101710004FEAD22242EA415210B54FEAD121A3F159
:10172000010300F02FF820F0004000F1020C00F05F
:10173000004701EB00501146BCF5006F40EA07007E
:1017400000D210BDBAF1000F0AD01CB503B44FF09F
:1017500004004FF004014FF000000FBCBDE8104042
:101760004FF00001BBF1010FB9BF04484FF0FF314A
:101770000348002140EA070010BD00BFFFFFEF7FD4
:101780000000F07F002B9C4630D477002BD01CB596
:101790004FEA370703B44FF010004FF01001BAF1D1
:1017A000000F06D0BCF1000FDCBF40F0080040F095
:1017B00008014FF000000FBCBDE810400BF1010B19
:1017C000BBF1010F08BF5FEA170722BF12F1010248
:1017D00011F101014FF0004143F1000300F000401E
:1017E00043EA00007047F9D35708D0E746EA0646B7
:1017F00013F1400F4FEA16461FDD13F1200FDFBF34
:1018000016430A46002120335B42BED0C3F12007B5
:1018100046EA064602FA07F74FEA164646EA070680
:10182000C3F1200722FA03F201FA07F721FA03F1C4
:101830004FF0000342EA0702A7E746EA020646EA3B
:1018400006464FEA164646EA0106BCBF46EA064689
:10185000360C4FF000034FF000024FF0000194E708
:101860002DE9804C9A46934670B491E8380007C839
:1018700031EA400C48BF34EA430C03D5FFF7A3FD1F
:10188000FFF780FFF0BCBDE8008C2DE9804C9A4644
:10189000934670B491E8380007C831EA400C48BF5D
:1018A00034EA430C03D5FFF78EFDFFF729FFF0BCA8
:1018B000BDE8008C2DE9804C9A46934670B491E8BF
:1018C000380007C810F0804F08BF13F0804F03D1D5
:1018D00000F01AF8FFF756FFF0BCBDE8008C2DE9C8
:1018E000804C9A46934670B491E8380007C810F0CF
:1018F000804F08BF13F0804F03D100F005F8FFF7C9
:10190000FFFEF0BCBDE8008C20F07F4780EA0300BA
:1019100023F07F4C07EB0C03A3F57C5300F0004051
:10192000A3F1FE0392F0000F00F0B38095F0000FDA
:1019300000F077802DE901494FEA11404FEA144643
:1019400021EA004800FB06FC24EA064708FB06F6ED
:1019500007FB08F800FB07F718EB06484CEB164CA2
:101960004FEA124B18EB07484FEA15464CEB17406D
:1019700022EA0B4E0BFB06FC25EA06470EFB06F699
:1019800007FB0EFE0BFB07F71EEB064E4CEB164C4F
:101990004FF000061EEB074E4CEB174B18EB0B08F5
:1019A00040F1000018EB0E0B58EB000840F100006E
:1019B0008F1A4FF000013CBFC943661B14BFB5EB43
:1019C000040C00213CBFC943F61B4FEA17444EEA02
:1019D0008E0E27EA04454FEA1C4704FB07622CEAF7
:1019E000074C05FB07F70CFB05F604FB0CFC16EB9C
:1019F000074642EB174216EB0C4642EB1C421BEB30
:101A0000060658EB0202414146EA9E0601D5BDE8B2
:101A10000189B619524141EB0101A3F10103BDE86F
:101A200001894FEA14454FEA114724EA054621EAA5
:101A3000074C05FB07F406FB07F70CFB06F105FB5B
:101A40000CFC11EB074144EB17444FEA124711EB32
:101A50000C4144EB1C4422EA074C05FB07F206FB51
:101A600007F70CFB06F605FB0CFC16EB074642EBF2
:101A7000174216EB0C4642EB1C456A1854F1000164
:101A800048BF7047B619524141EB0101A3F1010370
:101A9000704795F0000F37D04FEA11424FEA1447D4
:101AA00021EA024624EA074C02FB07F106FB07F78E
:101AB0000CFB06F402FB0CFC14EB074441EB174152
:101AC0004FEA154714EB0C4441EB1C4125EA074C47
:101AD00002FB07F506FB07F70CFB06F602FB0CFC06
:101AE00016EB074645EB174516EB0C4645EB1C423B
:101AF000121951F1000148BF7047B619524141EB2C
:101B00000101A3F1010370474FEA14454FEA114761
:101B100024EA054621EA074C05FB07F106FB07F717
:101B20000CFB06F24FF0000605FB0CFC12EB074223
:101B300041EB174112EB0C4251EB1C4148BF70477F
:101B4000921841EB0101A3F101037047FEE7000089
:101B5000014800F00EBA00003C010020014800F0EE
:101B600008BA000064010020014800F0D9BC000060
:101B7000D4010020014800F0D3BC00003402002052
:101B800001681823CAB2103AB2FBF3F2054B6FF3A7
:101B90000901032A9B5CC36500D9091D81650846BC
:101BA000704700009870000810B5014600208B694E
:101BB0008A6A4FF0C07453B1B3F5005F15D072B1AB
:101BC000012A0CD0022A0AD0032A09D104E01AB152
:101BD000012A06D0022A03D1C96AC90100D5012011
:101BE00010BDC96AA142FAD010BD002AF7D0012A5F
:101BF000F2D0022AF3D0032AF3D010BD30B5046826
:101C0000256825F480252560046863608368402B7F
:101C1000036803D099600068C26030BD9A600068B4
:101C2000C16030BD704772B6FEE790F82020012AEF
:101C300007D0022A05D0416A41F480214162012087
:101C40007047006842690A43426100207047F0B55E
:101C500090F820500468A468012D05D0022D03D00F
:101C6000416A41F4802157E014F0406F01D1E50052
:101C70004FD5C4F301640125A5401D608D684FF464
:101C8000C0739DB1CE6835434E6845EAC605066807
:101C900003EB0417F5514FF4C275076805EB041503
:101CA0000E697E51097D012905D009E00E88CD68B5
:101CB00045EA4655EBE701684E5946F480764E51A9
:101CC0001179D579567941EA056195792D0445EA6E
:101CD000062529434FF4C676056806EB0416A9517C
:101CE0001178D57841EA0561957852782D0445EA56
:101CF000022211434FF4C475026805EB04155151DB
:101D0000006803EB0411425842F0010242500020E7
:101D1000F0BD416A41F4001141620120F0BD0000B4
:101D200010B590F82020012A07D0022A05D0416A78
:101D300041F480214162012010BD3B48D0F80022CF
:101D400042F00102C0F80022D0F8002222F47C52B6
:101D5000C0F80022D0F800224B6A42EA0322C0F801
:101D600000220A7D02F01F0301229A40D0F81C32A3
:101D70009343C0F81C32CB69B3B9D0F80C3293430B
:101D8000C0F80C328C894B6864F31F434C6900EB3C
:101D9000C404C4F840320C890B6864F31F434C69D7
:101DA00000EBC404C4F84432CB69012B16D1D0F83F
:101DB0000C321343C0F80C320C884B6864F31F4399
:101DC0004C6900EBC404C4F840320C89CB6864F35E
:101DD0001F434C6900EBC404C4F844328B69002BE8
:101DE000D0F804320ED01343C0F804320B69002B34
:101DF000D0F8143208D01343C0F81432096A01290C
:101E000004D008E09343EFE79343F5E7D0F81C12C2
:101E10001143C0F81C12D0F8001221F00101C0F8E3
:101E20000012002010BD0000006400407047000058
:101E30000246002092F82030012B01D0022B05D160
:101E4000106821B1D0F8100000F003007047C0689E
:101E5000FAE770B590F82040012C05D0022C03D091
:101E6000416A41F4802128E0046809B32469A40789
:101E700020D04FF4D874056804EB01142D5915F0E7
:101E80000405956005682D591AD0ED085560056860
:101E90002C5904F00204D4604FF4DA74056804EBA2
:101EA00001142E5906F00F06082E0CD308250DE05C
:101EB000E468DCE7416A41F400114162012070BD31
:101EC0006D0D1560E3E72D5905F00F0515610568E7
:101ED0002D59C5F30725956105682C59240C5461CB
:101EE0004FF4DC72046802EB0112A4581C70046801
:101EF000A458240A5C700468A458240C9C700468DC
:101F0000A258120EDA704FF4DE72046802EB01126E
:101F1000A4581C710468A458240A5C710468A4586D
:101F2000240C9C710468A258120EDA71006829B161
:101F3000016941F020010161002070BDC16841F0DC
:101F40002001C160F8E70246002092F82010012924
:101F500001D002290CD111688A68520100D50120F4
:101F60008A68120100D5401C8968C90000D5401C50
:101F700070472DE9F05F0546006800244669D0F8F7
:101F800004908768D0F80CB0D0F810A0D0F8188072
:101F9000F10748D0F90714D001218160B80703D5B3
:101FA000284600F05AFA0CE0780702D54FF4006496
:101FB00007E0380702D54FF4805402E0284600F0CD
:101FC0004BFAF80516D529684FF480708860B8057B
:101FD00003D5284600F043FA0CE0780502D544F416
:101FE000005407E0380502D544F4804402E0284656
:101FF00000F034FAF80316D529684FF48030886071
:10200000B80303D5284600F02CFA0CE0780302D57B
:1020100044F4004407E0380302D544F4803402E07D
:10202000284600F01DFA300707D55FEACB6004D5DB
:102030002968102044F40074C86070074FF0080746
:1020400007D55FEA0B7004D52868C760284600F002
:1020500089F9B00706D52868C068800702D02846ED
:1020600000F082F9700607D55FEACA6004D52968D6
:10207000102044F480640861B00607D55FEA0A7056
:1020800004D528680761284600F0B6F9F00606D5A1
:1020900028680069800702D0284600F0AEF9B00336
:1020A00008D55FEAC96005D5296810204860284630
:1020B00000F0A4F9F00307D55FEA097004D5286899
:1020C0004760284600F0CEF9300446D55FEA4970F3
:1020D00040D5F00504D55FEAC87001D044F0010492
:1020E000B00504D55FEA887001D544F0020470059C
:1020F00004D55FEA487001D544F00404300529D5C1
:1021000018F0700F26D008F07000402815D006DCBB
:10211000102809D020280AD0302816D10AE05028EB
:102120000ED0602811D10EE044F008040DE044F018
:1021300010040AE044F0200407E044F0400404E006
:1021400044F0800401E044F480742868816921F03F
:1021500070018161296804204860002C05D0686AFC
:10216000204368622846FFF761FEBDE8F09F70B526
:10217000040003D094F8200010B104E0012070BDE9
:10218000204600F081F82068016841F001010160FB
:1021900000F030FC0546052604E000F02BFC401B57
:1021A0000A2811D820684068C007F6D02068016866
:1021B00021F00201016000F01DFC05460BE000F07B
:1021C00019FC401B0A2806D9606A40F4003060629E
:1021D00084F82060D2E7206840688007EFD4207E32
:1021E0000128206801683DD021F080010160607EF7
:1021F00001282068016838D021F040010160A07EEC
:1022000001282068016833D021F020010160E07EC0
:102210000128206801682ED041F010010160207F64
:1022200001282068016829D021F008010160607F41
:1022300001282068016824D021F004010160D4E95C
:1022400002010843D4E90412114308436168491E9E
:1022500008432168C86100206062012084F82000E2
:10226000002070BD41F08001C0E741F04001C5E7AA
:1022700041F02001CAE721F01001CFE741F0080149
:10228000D4E741F00401D9E7F0B587B00446142142
:102290006846FEF7C8F92E4B2E48DFF8B0E0196803
:1022A000D4F800C02B4A0225032609271030002449
:1022B000491CF44519D11960012907D1016841F081
:1022C00000710160006800F000700590106840F037
:1022D000010010601068694600F0010005904FF49D
:1022E000C050CDE900051C4828E0DFF870E0F44557
:1022F00029D1D0F800C04CF0806CC0F800C0D0F8F4
:1023000000C001290CF0806CCDF814C0196007D111
:10231000016841F000710160006800F000700590F4
:10232000106840F0020010601068694600F002007A
:1023300005904FF44050CDE90005094802AB83E811
:10234000D00000F05FFA07B0F0BD0000006400406C
:1023500010000020303802400000024000680040B9
:10236000000402407047000070B5214905468AB05C
:102370000868A84202D04968A94237D1A84201D0D2
:1023800001262DE000262BE06B4602AA00212846FC
:10239000FFF75FFD002829D1049808BB069808289C
:1023A0001ED10298B0F5007F1AD9B0F5027F17D878
:1023B000104A401EC0B2BDF8001002EBC61202EB7C
:1023C000001449BA2180BDF8020040BA6080BDF80F
:1023D000040040BAA08000F00DFBA0600120207333
:1023E00000212846FFF724FD0028CDD10AB070BD9A
:1023F000A40000207C030020704770477047000055
:1024000070B5044690F82000012804D0606A40F4BA
:102410000020606218E0022084F820002068016833
:1024200021F00101016000F0E5FA05460EE000BF71
:1024300000F0E0FA401B0A2808D9606A40F4003036
:102440006062052084F82000012070BD206840688B
:10245000C007EDD1606270BD70477047704770472C
:102460007047704770472DE9F0410446876D00F0D2
:10247000C1FA064694F835000025022806D08020CF
:10248000606584F834500120BDE8F081206801685F
:1024900021F0160101602068416921F0800141614D
:1024A000206C08B9A06C20B12068016821F00801F7
:1024B00001602068016821F0010101600CE000F07A
:1024C00099FA801B052807D920206065032084F82D
:1024D000350084F83450D7E720680068C007EED193
:1024E00094F85C103F208840B860012084F83500E3
:1024F00084F834500020C7E790F83510022903D043
:102500008021416501207047052180F83510006861
:10251000016821F00101016000207047406D7047A3
:102520002DE9F84304464FF00009CDF800906348C8
:102530004FF41651A56D0068B0FBF1F72E6894F8C2
:102540005C10082000FA01F131420FD021680A68BE
:1025500052070BD50A6822F004020A6094F85C1056
:102560008840A860606D40F00100606594F85C10E0
:102570004FF0010808FA01F0304208D0216849699B
:10258000090604D5A860606D40F00200606594F80B
:102590005C1004208840304208D02168096889070F
:1025A00004D5A860606D40F00400606594F85C108C
:1025B00010208840304218D021680968090714D5D6
:1025C000A86020680168490304D50068000308D5A5
:1025D000A16C07E00168C90503D4016821F0080176
:1025E0000160216C09B12046884794F85C102020D6
:1025F0008840304231D021680968C9062DD5A860CD
:1026000094F8350005282068016806D0490347D5AD
:10261000006800031DD4616C1CE021F0160101600C
:102620002068416921F080014161206C08B9A06CEB
:1026300020B12068016821F00801016094F85C1065
:102640003F208840A86084F8358084F83490216D5C
:102650001FE0E16B09B120468847606D00282BD050
:10266000606DC00714D0052084F83500206801682B
:1026700021F0010101600098401C0090B84203D88D
:1026800020680068C007F6D184F8358084F834905B
:10269000E16C002910D001B02046BDE8F0430847A6
:1026A0000168C905D5D4016821F01001016084F8E2
:1026B000358084F83490CCE7BDE8F883B80000207A
:1026C0002DE9F041044600F095F906465CB1022080
:1026D00084F83500002584F834502068016821F022
:1026E000010101600DE00120BDE8F08100F082F9F8
:1026F000801B052805D920206065032084F835005B
:10270000F2E720680068C007F0D12268116820480D
:102710000140D4E901031843D4E903363343184395
:1027200063691843A3691843E3691843236A18438C
:102730000843616A042903D1D4E90B131943084300
:10274000106020684069666A20F0070130460E4339
:10275000012704280CD1A06A0643E06A40B1204654
:10276000FFF722FA20B14020606584F83570BAE79F
:10277000206846612046FFF703FA94F85C203F2169
:1027800091408160656584F835700020ACE70000F9
:102790003F8010F02DE9F0410446866D90F834003A
:1027A000002501280DD0012084F8340094F83570FC
:1027B0000020012F07D084F8340002252846BDE808
:1027C000F0810220FBE7022784F83570606520461F
:1027D000FFF714FA94F85C103F208840B06020683E
:1027E000016841F016010160206C20B12068016889
:1027F00041F0080101602068016841F001010160B9
:10280000DCE700002DE9F84FDFF8BCA1002201252C
:1028100003264FF00F090AF1040BAAF1040E00BFC2
:102820000B6805FA02F42340A34270D10F7907F038
:102830000307012F01D0022F16D187684FEA420803
:1028400006FA08FC27EA0C07D1F80CC00CFA08FCC1
:102850004CEA070CC0F808C04768A7430C79C4F3DA
:10286000001494403C4344600C79E443A4070AD02C
:10287000C4684FEA420C06FA0CF7BC438F6807FAAB
:102880000CF72743C7600C7904F00304022C12D123
:10289000D40800EB840CDCF820405707FF0E09FA3F
:1028A00007F824EA0804D1F8108008FA07F848EA83
:1028B0000408CCF8208004684FEA420C06FA0CF7B2
:1028C000BC430F7907F0030707FA0CF727430760AB
:1028D0004C6814F4403F70D03C4C276847F4804764
:1028E0002760246822F0030704F480440094384CE5
:1028F00007EB040CDCF8084897074FEA177809FA49
:1029000008F7BC43334FB84202D1002724E054E01B
:10291000314FB84201D101271EE0304FB84201D1FA
:10292000022719E02E4FB84201D1032714E02D4FA2
:10293000B84201D104270FE02B4FB84201D105273F
:102940000AE02A4FB84201D1062705E0284FB842D5
:1029500001D1072700E0082707FA08F72743CCF83A
:102960000878DAF800405746D1F804C09C435FEA83
:10297000CC2C00D51C433C60DBF800405F46D1F80E
:1029800004C09C435FEA8C2C00D51C433C60DEF8FD
:1029900000407746D1F804C09C435FEA8C3C00D5E8
:1029A0001C433C60084F083F3C68D1F804C09C437E
:1029B0005FEACC3C00D51C433C60521C102AFFF45B
:1029C0002FAFBDE8F88F0000083C014044380240BA
:1029D00000300140000002400004024000080240B4
:1029E000000C024000100240001402400018024097
:1029F000001C02400148806870470000AC000020C5
:102A0000024881680278114481607047AC00002060
:102A10000B4810B5016841F400710160016841F490
:102A200080610160016841F480710160032000F061
:102A300099F80F2000F006F800F04AF8002010BDC9
:102A4000003C024030B505461C4887B000240168B0
:102A500041F001010160006806A900F0010000904A
:102A600001A800F02BF900F059F915494000B0FB1E
:102A7000F1F11548134A491E026040F2E732C0E9FD
:102A80000324C0E90114846100F042FB040012D168
:102A90000D4800F06BFB04000DD1192000F034F854
:102AA000102D07D200222946192000F03BF80748D4
:102AB000056000E0012407B0204630BD44380240E4
:102AC00040420F000000014094020020B0000020AE
:102AD0000C4882B0016841F480410160006800F454
:102AE000804000900748001F016841F0805101605C
:102AF0000068002200F0805000900F21901E02B06C
:102B000000F010B844380240002809DB00F01F0232
:102B1000012191404009800000F1E020C0F800113F
:102B200070470000F0B40E4B1B680C46C3F3022341
:102B3000C3F10705042D00D90425191D072901D269
:102B4000002300E0DB1E012606FA05F1491E2140A4
:102B500099409E40761E16403143F0BC01F021BEE4
:102B60000CED00E0064900F0070208684FF6FF038D
:102B7000184040EA0220034A1043086070470000F2
:102B80000CED00E00000FA052DE9F0470E460500C7
:102B900065D0DFF81481D8F80000F7B200F0070024
:102BA000B04207D288F80070D8F8000000F00700A3
:102BB000B04254D128683D4C810712D5400703D557
:102BC000206840F4E05020602878000703D5206892
:102BD00040F4604020602068A96820F0F0000843BD
:102BE00020602878C0072DD030496868083901284E
:102BF00012D0022813D0032811D0096889070029B0
:102C00002DDA216821F0030101432160FFF7F2FE74
:102C1000814641F2883A0EE009688903EFE70968C6
:102C20008901ECE7FFF7E6FEA0EB0901514502D967
:102C30000320BDE8F0872068696800F00C00B0EB65
:102C4000810FEFD1D8F80010404601F00701B142E2
:102C500007D90770006800F00700B04201D00120DA
:102C6000E7E72878400705D52068E96820F4E050B8
:102C7000084320602878000706D52068296920F4D9
:102C8000604040EAC100206000F058F82168084A1E
:102C9000C1F30311515CC84006490860064800684A
:102CA000FFF7D0FE0020C4E7003C02400838024095
:102CB000A0700008B8000020B00000200F220260C1
:102CC0000C4A136803F003034360136803F0F00336
:102CD0008360136803F4E053C36012684FF4E05359
:102CE00003EAD20202610448006800F007000860AD
:102CF0007047000008380240003C02400448054983
:102D000000680968044AC1F38221515CC8407047D9
:102D1000B800002008380240B07000080448054997
:102D200000680968044AC1F34231515CC8407047E9
:102D3000B800002008380240B0700008154810B5EF
:102D4000006810F00C02144813D01449042A0FD064
:102D5000082A0ED10F4C241F2268236802F03F027C
:102D60005B0207D52068C0F38810A0FB010106E0D4
:102D7000084610BD2168C1F38811A1FB00010023A2
:102D8000FDF700FB2168C1F30141491C4900B0FB7C
:102D9000F1F010BD083802400024F40040787D01B5
:102DA0002DE9F84F04006ED02078DFF84C93C0076F
:102DB000A9F104054AD009F104000168C1F38101B9
:102DC000012908D00068C0F3810002280AD1D9F88F
:102DD0000000400206D52868800337D560680028C7
:102DE000E1D033E06068B0F5803F10D0B0F5A02F9F
:102DF000286810D020F480302860286820F48020D3
:102E000028606068A8B1FFF7F5FD06460DE0286868
:102E100040F48030F4E740F480202860F7E700BFFA
:102E2000FFF7E8FD801B642873D828688003F7D576
:102E30000CE0FFF7DFFD064605E000BFFFF7DAFD17
:102E4000801B6428F0D828688003F7D42078DFF846
:102E5000AC8280074FF0000A3ED5A748001D0168EC
:102E600011F00C0F08D00068C0F3810002280BD1CC
:102E7000D9F80000400207D42868800716D5E0681A
:102E8000012800D112E033E1E068B8B10120C8F8B0
:102E90000000FFF7AFFD064605E000BFFFF7AAFD03
:102EA000801B0228C0D828688007F7D528682169C8
:102EB00020F0F80040EAC10028600DE0C8F800A04A
:102EC000FFF798FD064604E0FFF794FD801B0228FB
:102ED0001FD828688007F7D42078000722D5864FAE
:102EE00087486169703771B101210160FFF782FD88
:102EF000064604E0FFF77EFD801B022809D83868EB
:102F00008007F7D50EE0C0F800A0FFF773FD064676
:102F100005E082E0FFF76EFD801B02287DD838684F
:102F20008007F7D42078400768D5DFF8CCB10027B8
:102F30000BF13C0BDBF80000C0000BD4DBF80010F9
:102F400041F08051CBF80010DBF80000012700F0C1
:102F5000805000906B4E3068C00510D4306840F44B
:102F600080703060FFF746FD009005E0FFF742FDFE
:102F70000099401A022850D83068C005F6D55E4E38
:102F8000A0686C3601280FD00528306810D020F0DA
:102F900001003060306820F004003060A068B8B1F3
:102FA000FFF728FD00900FE0306840F00100F4E7E3
:102FB00040F004003060F7E7FFF71CFD0099411A6C
:102FC00041F28830814266D830688007F4D50EE03F
:102FD000FFF710FD009007E0FFF70CFD0099411A84
:102FE00041F28830814256D830688007F4D42FB13E
:102FF000DBF8001021F08051CBF80010A069C8B3B5
:103000003D49091D0968C1F3810102294AD00228FE
:10301000504607D0C8F8600000E03CE0FFF7EAFC4B
:1030200004463BE04746C8F86000FFF7E3FC06466D
:1030300005E000BFFFF7DEFC801B02282BD82868C4
:103040008001F7D4D4E907010843A16A2E4A490850
:1030500002EB0141626A41EA8211084394F82C10A4
:1030600040EA0161C9F8001001203866FFF7C2FC90
:10307000044606E03EE000BFFFF7BCFC001B022850
:1030800009D828688001F7D534E000BFFFF7B2FC0B
:10309000001B022802D90320BDE8F88F28688001B0
:1030A000F4D427E00128F7D0D9F80000E26900F451
:1030B000800191421CD1226A00F03F01914217D158
:1030C00047F6C071626A0140B1EB821F10D1A26A5B
:1030D0004FF0FF3300F4403103EB5202B1EB024FEB
:1030E00006D194F82C1000F07060B0EB016F01D0A5
:1030F0000120D1E70020CFE704380240000047421A
:10310000800E4742007000400000FFFF704770478C
:1031100010B5040003D094F83D0010B107E0012081
:1031200010BD002084F83C00204600F01EF802206C
:1031300084F83D00211D206801F0B4F8012084F8D6
:10314000460084F83E0084F83F0084F8400084F88C
:10315000410084F8420084F8430084F8440084F875
:10316000450084F83D00002010BD704790F83D10E8
:10317000012901D001207047022180F83D1001682B
:10318000CA6842F00102CA6000681149884214D03E
:10319000B0F1804F11D00F4988420ED00E498842BD
:1031A0000BD00E49884208D00D49884205D00D4900
:1031B000884202D00C49884204D1816801F007019D
:1031C000062903D0016841F0010101600020704729
:1031D000000001400004004000080040000C0040D6
:1031E00000040140004001400018004070472DE9F4
:1031F000F04104460068C66805694FF00007A9075A
:1032000013D5B10711D5F91E01610120207720687F
:1032100080698007204602D0FFF7E8FF04E000F055
:103220007EF8204600F07CF82777680716D57007EF
:1032300014D521686FF0040008610220207720680F
:10324000806910F4407F204602D0FFF7CFFF04E0F2
:1032500000F065F8204600F063F82777280715D5B9
:10326000300713D521686FF008000861042020772B
:103270002068C0698007204602D0FFF7B7FF04E04E
:1032800000F04DF8204600F04BF82777E80616D5F9
:10329000F00614D521686FF010000861082020772F
:1032A0002068C06910F4407F204602D0FFF79EFFDF
:1032B00004E000F034F8204600F032F82777E80701
:1032C00008D0F00706D021686FF0010008612046A1
:1032D00000F028F8280608D5300606D521686FF0DA
:1032E000800008612046FFF711FF680608D57006C8
:1032F00006D521686FF040000861204600F01CF8F8
:10330000A8060AD5B00608D521686FF0200008612C
:103310002046BDE8F041FFF7FABEBDE8F0817047F6
:103320007047000000680349884201D1FFF768BB7D
:103330007047000000000140704738B5044690F81F
:103340004200202801D0022038BD51B14AB10120ED
:10335000206300206063204601F0D2F9216B01292F
:1033600001D0012038BD21680A68496800912168B0
:103370000C3151E8002F42F0100241E80023002BED
:10338000F5D138BD00F000BD70B5044620680C30A2
:1033900050E8001F21F4907140E80012002AF5D196
:1033A0002068143050E8001F21F0010140E80012AD
:1033B000002AF5D1206B012809D120680C3050E893
:1033C000001F21F0100140E80012002AF5D120680A
:1033D00040694FF00005400615D52068143050E8CC
:1033E000001F21F0400140E80012002AF5D1E06BF7
:1033F00048B10565E06BFFF736F820B1E06BFFF7E9
:103400008DF8202806D0E585202084F84200256329
:10341000002070BD10206064032070BD00F0A0BCCF
:10342000F8B5016804460868CA684B6910F00F0FC8
:103430004FF0000559D003F0010602F490773743AE
:1034400065D0C10705D0D10503D5616C41F00101FC
:103450006164410705D5D90703D0616C41F00201D1
:103460006164810705D5D90703D0616C41F004017F
:103470006164010707D502F02001314303D0616C7C
:1034800041F008016164616C00293AD0800604D5DE
:10349000900602D5204601F04CF820684069616C26
:1034A000C0F38010090700D460B3204601F00CF887
:1034B00020684069400621D52068143050E8001F7C
:1034C00021F0400140E80012002AF5D1E06BA8B1DC
:1034D00072490165E06BFFF70FF8002811D0E06B2F
:1034E000016D01B0BDE8F040084783060FD5930693
:1034F0000DD52046BDE8F84001F01BB82046FFF787
:103500008DFFF8BD2046FFF789FF6564F8BD266B87
:103510002023012E7ED1C6067CD5D6067AD5086832
:103520004868009048694FF0020640064DD5E26BAE
:10353000106840684FF480770004000C3AD0A18DE9
:10354000814237D9E085D069B8422DD020680C304F
:1035500050E8001F21F4807140E80012002AF5D1E4
:103560002068143050E8001F21F0010140E80012EB
:10357000002AF5D12068143050E8001F21F04001E6
:1035800040E80012002AF5D184F842302563206813
:103590000C3050E8001F21F0100140E80012002A12
:1035A000F5D1E06BFEF75FFF6663A08DE18D401AF9
:1035B00081B206E0A18D8142A8D1D069B842A5D1DF
:1035C00066632046FFF7DEFEF8BDA08DE18D401A50
:1035D00081B2E08D0028F7D00029F5D020680C30AA
:1035E00050E8002F22F4907240E80027002FF5D118
:1035F0002068143050E8002F22F0010240E8002734
:10360000002FF5D184F84230256320680C3050E853
:10361000002F00E006E022F0100240E80023002B1B
:10362000F3D1CDE705062BD5150629D594F8410031
:103630002128C9D1A068B0F5805F01D12069B0B15F
:10364000206A411C2162216800784860E08C401E9D
:103650000004000CE084B7D12068C16821F080012B
:10366000C1602068C16841F04001C160F8BD206AB6
:103670000088C0F308004860206A801C2062E5E7EB
:103680004006F3D55006F1D5CA68204622F0400224
:10369000CA6084F8413000F0E3F8F8BD81430008C7
:1036A00070B5040004D094F84100002510B106E084
:1036B000012070BD84F84050204600F023F82420FB
:1036C00084F841002068C16821F40051C16020469F
:1036D00000F090FF2068016921F4904101612068A9
:1036E000416921F02A0141612068C16841F400511B
:1036F000C1606564202084F8410084F8420065635D
:10370000002070BD2DE9F04186B0064614216846C0
:10371000FCF789FF2A49306888424ED129480024A5
:10372000016841F400210160006800F40020059068
:1037300024481038016841F00401016000686946BE
:1037400000F0040005904FF4406000900220CDE9A5
:10375000010403200390082004901B48FFF752F84F
:103760001B4D1A484FF4806847052860C5E901746D
:10377000C5E903486C61AC61EC612C6228466C625F
:10378000FEF79EFF08B1FEF74EFAF563AE630F48F1
:10379000104D3030E5E802074020A5E811010D4842
:1037A00045F81449AC61EC612C626C62FEF788FF4D
:1037B00008B1FEF738FAB563AE6306B0BDE8F08134
:1037C000004C004040380240000802404060024087
:1037D000D4010020340200207047704770B50446C1
:1037E00090F84100202801D0022070BD01B3FAB149
:1037F0002162A284E28400206064212384F84130A5
:10380000A56B144BEB63A56B134B2B64A56B134B90
:10381000EB64A36B186520681346A56B021D284650
:10382000FEF7B8FF30B110206064202084F841001A
:10383000012070BD21686FF04000086020681430DE
:1038400050E8001F41F0800140E80012002AF5D145
:10385000002070BD7D440008BF4400088F4300086D
:1038600003498A68904201D1002008707047000027
:10387000140000207047FEE7024B9A6000229A7005
:1038800000F0A0BB140000202DED0A8B8EB04FF08D
:10389000000B5C46DA46FF4DCDF818B0CDF810B0FD
:1038A000687818B901F0BEF80120687001F03AFAA2
:1038B0000746DFEDF99A9FEDF98A9FEDF99A9FEDA2
:1038C000F9BADFEDF9AA9FEDF9AA00BFFFF792F868
:1038D000019001F04BFC0221012000F061FB054644
:1038E0000321012000F05CFB01210090084600F05C
:1038F00057FB06463DB1287B28B1009818B1007BE4
:1039000008B1012000E00020DFF88883814608F13B
:103910002C0898F80D00D8B1002088F80D00014659
:10392000DC48C170002141710C4602F0E1F808F159
:10393000100001F005FB08F12C0001F001FB08F17B
:10394000480001F0FDFADA494FF0000A81F810A0B2
:1039500098F80C00424670B100201073CD49012345
:10396000CB7008714871486204460861D049DDF89F
:1039700004B082460874DFF81C8398F8030000281E
:103980007ED0B9F1000F53D00199A1EB0B00B0F537
:10399000FA7F01D3012000E000200390BD482C30C5
:1039A000B9F1000F90ED000AD0ED002AF1EE408A47
:1039B00049D0B5F9020000EE100A0098F8EEC0BA3E
:1039C000B0F9020000EE100AF8EEC08A3BEEA80A39
:1039D000B1EE68CADFEDB70A20EE200ADFEDB60AC5
:1039E00001F050F83BEEA82AB5EEC02AF1EE10FA2D
:1039F00001D2B1EE422AA748B0492C30D0ED000ADE
:103A000070EEC02AD0ED000A12EE100A30EE800AE5
:103A10008842F1EE408A1CDCF5EEC0BAF1EE10FAF5
:103A200017DDB5EEC0CAF1EE10FA12DD34B106E0D2
:103A3000002003900446DDF804B0AFE7019C019834
:103A4000001B642801D20020039098F8050010B1F3
:103A50001FE00024F7E7E5B1287BD0B1B5F90200FB
:103A6000F0EE691A00EE100AB6EE001A8948B8EEB8
:103A7000C00A88ED050AD8ED050AB0EE620A00E03A
:103A800061E13C3001F068FA02460221012000F0B9
:103A900021FB98F80500E8B90098D8B1007BC8B1BF
:103AA0000098F0EE691AB6EE001AB0F9020000EEC6
:103AB000100A7848B8EEC00A583088ED060AD8EDEA
:103AC000060AB0EE680A01F047FA02460321012017
:103AD00000F000FB002E67D0307B0028FBD035883B
:103AE000BAF1000F0ED100200490069588ED078AE8
:103AF00088ED088A4FF0010A019998ED070A6C4891
:103B000000F0EEF90698281AB0F5805F01DDA0F507
:103B1000005010F5805F01DA00F500500499084468
:103B200000EE100AB8EEC00ADFED650A20EE200AAA
:103B3000DFED640A0695049080EE201A454688ED74
:103B4000071A98F8050070B395ED0A0AD5ED070A33
:103B500085ED080A70EE608AF0EE4B0A28EE890ABD
:103B600000F090FFB6F90200F0EE6A1A00EE900A3B
:103B70004848B0EE4A1AF8EEE00A743001F0ECF969
:103B800002460121084600F0A5FA18EE900A4E49B7
:103B9000884209DA18EE900A4C49884204D2002083
:103BA0006871E870CFE000E0CFE0DFF8E8900398BC
:103BB00009F12C090090D9F80430D9F808200199AE
:103BC00095ED070A3A4800F0C9F9DFF8E48098ED6E
:103BD000000A85ED080A95ED080AD5ED070A70EE92
:103BE00060BA98ED010AD5ED070A30EEC00A01F07F
:103BF000FBF9B0EE40CA98ED010AD5ED080A30EEA7
:103C0000C00A01F0F1F9D8F80800D9F80410F0EE74
:103C1000408A884206D32BEE890AF0EE4B0A00F068
:103C200031FF06E0D9F8081095ED070A204800F0AA
:103C300063F9B6F90200F0EE6A1A00EE900A154830
:103C4000B0EE4A1AF8EEE00A743001F085F9024647
:103C50000121084600F03EFA9FED1D0ACCEE000A55
:103C6000BCEEE00A10EE100A286198ED010A1BEE86
:103C7000900A184930EE280A884285ED080A04DACD
:103C80001BEE900A144988424BD3B6F902001E304D
:103C90003C2823E0140000200000804600000000C3
:103CA00000009643004083450020CB453333333F2B
:103CB000680300209A99993E0000FA430000C84228
:103CC0000000B44300009048CDCC4C3FCDCC4CBF5D
:103CD000000020420000A0410000A0C121D8686A75
:103CE00008B9019868620198696A401AB0F5967F30
:103CF00019D301202871687195ED070ADFED170AC5
:103D00000020024630EE600A022185ED0A0A686250
:103D1000012000F0DFF900220321012000F0DAF990
:103D200001E000206862039878B1D8F80810D9F84B
:103D300004204846914208D340682969884204D843
:103D40000020E870044601F0D3FE019800F07AF9F3
:103D50007F1C384600F0CFFFB8E500000000484364
:103D600010B50446074881688C420AD10021817051
:103D700001F074FE2046FFF707FBBDE8104000F09D
:103D800051BE10BD14000020F8B50D4612498968D7
:103D900088421FD1402D1DD80024104E104F0AE03C
:103DA000385DADF8000000231A466946306801F01E
:103DB0004DF8641CA4B2AC42F2D30A20ADF8000066
:103DC00000231A466946306801F040F8BDE8F84023
:103DD00000F028BEF8BD0000140000200C000020F8
:103DE000DC02002088B000F09DFFDFF8EC80394F46
:103DF0000546A8F12C0400BFFEF7FCFD064694ED35
:103E0000080AD4ED070A387C48B1D7ED010A94EDD1
:103E1000080A94ED071A30EE600A71EE600A98ED18
:103E2000001A8DED001AD8F8041001EE101AB8EE41
:103E3000411A8DED011AD8F8080001EE100AB8EE0B
:103E4000411A8DED021A607910B1B0EE001A09E046
:103E5000207910B1BFEE001A04E0E07801EE100AFC
:103E6000B8EE411A8DED031A206901EE100AB8EE82
:103E7000411A8DED041A94ED051A8DED051A8DED9C
:103E8000060ACDED070A207828B1E068301A6428C8
:103E900001D301F0E3FD2078B0B90E482022694635
:103EA0004C38FCF764FB0B480C498C3809680166F8
:103EB000012020700749E66024224C39A068FFF7F2
:103EC0008DFC08B101F0CAFD1435284600F013FF3F
:103ED00092E7000068030020400000209470000872
:103EE000002808D080ED000A80ED010A0022C0E918
:103EF0000221012101747047DFED120AF8B190ED43
:103F0000001A114931EE400A10EE100A884204DA14
:103F100010EE100A0D49884211D3DFED0D0A20EE94
:103F2000200ADFED0C0AB4EEE00AF1EE10FA06DC2E
:103F3000DFED090AB4EEE00AF1EE10FA01D2B0EEBC
:103F4000600A704700000000CDCC4C3FCDCC4CBF88
:103F50000000964300408345004083C530B4DFED48
:103F60000F0A029C002814D002B90122057C95B1E9
:103F70008CB184689C420CD2C368CB1A934208D39C
:103F800090ED000A641C30EE200A80ED000AC0E9C2
:103F9000024130BC704730BCFFF7A2BF0000204296
:103FA000421E022A02D209B1082901D90020704715
:103FB000034A02EBC01000EB01109038704700007C
:103FC0007C03002070B58AB00C460546282168465F
:103FD000FCF729FB18484FF48071C0E900541748DA
:103FE000FCF721FB20211648FCF7FBFA00220120F8
:103FF000CDE906200890009204920E2601920292CA
:1040000003926946284609960592FDF789FE69469E
:1040100020460596FDF784FE2846FEF7F1F9204676
:10402000FEF7EEF902212846FDF7FFFD02212046AA
:10403000FDF7FBFD0AB070BDA40000207C0300204A
:104040007C0400202DE9FF47DFF8808082460024B1
:104050006D4602AEA8F58079002008EB041100BF80
:1040600031F8102025F8102001EB4002128926F8C3
:104070001020401CC0B20428F2D3154F6A464FF4FA
:10408000007157F8240001F009FD57F8240002AA36
:1040900040F2FF1101F002FD0020034609EBC412BB
:1040A00002EB00110F7B37B1D1F808C0AAEB0C0767
:1040B000642F00D90B73401CC0B20828F0D3641CD5
:1040C000E4B2022CC8D3BDE8FF8700007C040020C6
:1040D000A4000020431E012B0AD8002908D008297B
:1040E00006D8044B03EB001000EB410020F8122C23
:1040F000704700007C0400200F4810B50D49016096
:104100000321416000214FF08072C0E902124FF498
:10411000102202614FF400124261017641768176ED
:10412000C17601774177FEF722F8002801D072B6F8
:10413000FEE710BD006400403C0100200F4810B5B0
:104140000D4901600321416000214FF08072C0E9F8
:1041500002124FF4102202614FF400124261017604
:1041600041768176C17601774177FEF700F8002825
:1041700001D072B6FEE710BD006800406401002067
:10418000114808B5016841F080010160016801F043
:1041900080010091016841F001010160016801F0B6
:1041A00001010091016841F002010160016801F024
:1041B00002010091016841F004010160006800F013
:1041C0000400009008BD000030380240FEE7FEE722
:1041D000012000F083FDFBE710B54FF0E0200069FF
:1041E00002F0AEFA012803D0BDE8104001F06EBF26
:1041F00010BD000030B593B030216846FCF713FACB
:1042000014210CA8FCF70FFA1D480025016841F0A5
:1042100080510160006800F08050119019480168D9
:1042200041F4804101600068022400F48040119054
:104230000120039010200490009406940820CDE9FA
:104240000750A820CDE9090404200B906846FEF72A
:10425000A7FD08B172B6FEE70CA90F2081E8310076
:104260004FF4A0500F904FF48050109005210CA8EF
:10427000FEF78AFC002801D072B6FEE713B030BD0D
:1042800040380240007000400248016841F470016B
:104290000160704788ED00E00148FEF7A8BF00000C
:1042A00094020020F0B50268274B284D284E294F74
:1042B000294C4FF0804C984209D0604507D0A84265
:1042C00005D0B04203D0B84201D0A04204D122F0C0
:1042D000700E4A6842EA0E0298421BD0604519D01F
:1042E000A84217D0B04215D0B84213D0A04211D086
:1042F0001A4DA8420ED01A4DA8420BD0194DA84213
:1043000008D0194DA84205D0184DA84202D0184D2A
:10431000A84203D122F44075CA682A434D6922F0AD
:1043200080022A438D68C5620D688562984201D07B
:10433000A04201D109690163016841F004010160F3
:10434000012141610260F0BD000001400004004015
:1043500000080040000C0040000401400040014003
:10436000004401400048014000180040001C00408B
:10437000002000400148FFF753B800008C010020E6
:1043800010B5806B0021C185FFF748F810BD70B5EE
:10439000846B2068406994F84110C0F3C010002578
:1043A000212904D118B1E584204600F0B4F8206832
:1043B000406994F84210C0F38010222904D118B14A
:1043C000E585204600F080F8606C40F010006064E5
:1043D0002046FFF723F870BD10B50146806B0968D1
:1043E00009684FF00002C9052ED4C28501680C315E
:1043F00051E8003F23F4807341E80034002CF5D1EC
:104400000168143151E8003F23F0010341E8003412
:10441000002CF5D10168143151E8003F23F040032E
:1044200041E80034002CF5D1202180F84210016BC6
:10443000012909D101680C3151E8003F23F0100334
:1044400041E80034002CF5D14263016B012902D010
:10445000FFF7C2F910BD818DFEF794FF10BD10B5B6
:10446000806B01214163016B012902D0FFF7B5F98F
:1044700010BD818D4908FEF785FF10BD10B50146BE
:10448000806B09680968C90516D40021C1840168D8
:10449000143151E8002F22F0800241E80023002B64
:1044A000F5D101680C3151E8002F42F0400241E89B
:1044B0000023002BF5D110BDFFF7D2F910BD10B5C8
:1044C000806BFFF7D7F910BD01680C3151E8002F60
:1044D00022F4907241E80023002BF5D101681431D9
:1044E00051E8002F22F0010241E80023002BF5D112
:1044F000016B012909D101680C3151E8002F22F02C
:10450000100241E80023002BF5D1202180F8421051
:1045100000210163704701680C3151E8002F22F03F
:10452000C00241E80023002BF5D1202180F8411082
:10453000704708B590F84210222901D0022008BD2A
:1045400082684FF480539A4201D1016921B1816A96
:104550009A421BD04AB10AE00268816A5268C2F3EB
:1045600008020A80816A891C08E0026972B1026847
:10457000526802F07F020A70816A491C8162C18D13
:10458000491E0904090CC18503D01BE0026852686A
:10459000F1E70168CA6822F02002CA600168CA68AF
:1045A00022F48072CA6001684A6922F001024A61FD
:1045B000202180F8421000214163026B012A03D0C0
:1045C000FFF70AF9002008BD016301680C3151E8CA
:1045D000002F22F0100241E80023002BF5D10168E2
:1045E0000A68D20602D50A6849680091818DFEF7F3
:1045F000C9FEE7E770B5044600680169E26821F486
:104600004051114301612169A068E2690843616971
:10461000114308432168CA6849F20C639A43024374
:10462000CA6020684169A26921F440711143416167
:1046300031492068884202D03049884202D1FEF7D1
:104640006DFB01E0FEF75AFBE269002319216425A6
:104650003226B2F5004F626828D0A0FB0101930F0B
:104660009200FBF78FFE0146B0FBF5F06FF01802E9
:10467000504301EB800006EB0010B0FBF5F000F0BA
:10468000F002B1FBF5F002EB0012B1FBF5F06FF0B8
:104690001803584301EB800006EB0010B0FBF5F067
:1046A00000F00F0021681044886070BDA0FB01017C
:1046B00092185B41FBF766FE0146B0FBF5F0020184
:1046C000B1FBF5F06FF01803584301EB800006EBE7
:1046D000C000B0FBF5F000F0F80002EB4002B1FBC7
:1046E000F5F0584301EB800006EBC000B0FBF5F09D
:1046F00000F00700D6E70000001001400014014060
:1047000038B5816204468285002013466064222207
:1047100084F84220E56B1F4AEA63E56B1E4A2A646F
:10472000E56B1E4AEA64E26B10650A462168E06B9D
:10473000091DFEF72FF830B110206064202084F8A6
:104740004200012038BD206801684068009020695F
:1047500048B120680C3050E8001F41F4807140E8F7
:104760000012002AF5D12068143050E8001F41F0F3
:10477000010140E80012002AF5D12068143050E809
:10478000001F41F0400140E80012002AF5D100204E
:1047900038BD0000D94300085F4400088F4300087B
:1047A000FEE70907090E002804DB00F1E02080F88D
:1047B0000014704700F00F0000F1E02080F8141D95
:1047C000704700000000000030B52DED048B81B073
:1047D000B0EE408AF0EE608A6A4651EC180B00F0A9
:1047E0007BF900989FED329B7E300090002821DC01
:1047F00053EC192B51EC180B02F0D2F91AD000210E
:1048000040F608004FF00000044651EC180B02F08F
:1048100081F908EE100A40F6080004EA00014FF0A2
:104820000000B5EEC08AF1EE10FA04BF0220FCF7DA
:104830005FF82DE00098FF2830DB002108464FF09C
:10484000000000F4400553EC192B51EC180B02F05A
:104850001DFB8CBF002401240220FCF749F89FEDCA
:10486000168A4DB1002C0CBF4FF400004FF48000AD
:10487000A84218BF9FED118A042108464FF000009E
:10488000002C01BFB1EE480A01B0BDEC048B30BD75
:10489000B0EE480A01B0BDEC048B30BD51EC180BF2
:1048A00002F038F901B000EE100ABDEC048B30BD07
:1048B00000000000000000000000807FFFFF7F7FFD
:1048C00030B540F2FF742DED048BF0EE608A18EEE7
:1048D000901A85B0B0EE408A9FED2B9B05468DED7A
:1048E000008B34EA115147D053EC192B51EC180BC3
:1048F00002F056F940D02A4651EC180B02F03BFB6F
:1049000041EC180B18EE900A8DED008B34EA105034
:104910001CD053EC192B51EC180B02F041F92BD1A0
:104920000220FBF7E5FF00F053F810EE901A18EEA6
:10493000900A8DED020B8DED008B61F31E0003904C
:104940009DED020B05B0BDEC048B30BD0220FBF7E2
:10495000CFFF00F02DF810EE901A18EE900A8DEDB2
:10496000020B8DED008B61F31E0003909DED020B99
:1049700005B0BDEC048B30BD05B0B0EE480AF0EEDA
:10498000680ABDEC048B30BD000000000000000090
:1049900008B59FED060A0A4601468DED000A6846F5
:1049A000FBF707FF9DED000A08BD000000000000B6
:1049B0009FED050B10B553EC102B51EC100B02F0D2
:1049C00067F941EC100B10BD000000000000007002
:1049D0009FED050B10B553EC102B51EC100B02F0B2
:1049E00057F941EC100B10BD000000000000001052
:1049F00010B5044691ED000BFFF7E6FE84ED000ACA
:104A000010BD10B5044690ED000B0846FFF758FFA7
:104A100084ED000B10BD30380A2801D20120704708
:104A20000020704738B5154CA068002825D00168D3
:104A30000A684A6800920A68496800914022104951
:104A4000FEF77BFC80B1A068FEF79EFCA0680168C1
:104A50000A684A6800920A68496800914022084939
:104A6000FEF76BFC002808D1A068C06B002804D0BA
:104A70000068016821F00801016038BD14000020C1
:104A8000DC020020B4EEE00AF1EE10FA06DCF1EEF2
:104A9000600AB4EEE00AF1EE10FA01D2B0EE600A5C
:104AA0007047000070B50D46014614460848FBF7F4
:104AB000E1FD58B129460648FBF7DCFD30B121463F
:104AC0000348FBF7D7FD08B1002070BD012070BD81
:104AD000400300200000000010B582B01446CDE96C
:104AE00000010023009A2360194B21F000409842F6
:104AF0002ADA024328D0B0F5801FA8BF226810DA56
:104B00009FED150B53EC102B9DED000B51EC100B92
:104B100002F0BEF8CDE900016FF0350221F000404F
:104B200022600F4B6FF31E5103EB205010442060A6
:104B300041F0FF5040F0005001909DED000B00BF90
:104B400002B051EC100B10BD9DED000BF8E700001A
:104B50000000F07F00000000000000000000504353
:104B600002FCFFFFFEF790FE08B5FDF751FFFFF7CF
:104B700041FBFFF705FB38480024016841F40011B0
:104B800001600068224600F40010009005210D200D
:104B9000FDF7C8FF0D20FDF7B7FF002205210F200C
:104BA000FDF7C0FF0F20FDF7AFFF002205213420E5
:104BB000FDF7B8FF3420FDF7A7FF2948274901601A
:104BC0004FF4E131C0E901140C21C460C0E9044193
:104BD0008461C461FEF764FD08B172B6FEE7FFF7B9
:104BE0008BFAFFF7ABFA1E4AA2F12801A1F12800C7
:104BF000FEF742FE002205211420FDF793FF14204A
:104C0000FDF782FF002205214020FDF78BFF4020A9
:104C1000FDF77AFF00F08EF8124A0221102000F012
:104C2000E9F8114C0F4A0021E0606C3A0F4800F09F
:104C300041F90C4A2060483A00210D4800F03AF949
:104C4000084A6060243A00210A4800F033F9A06065
:104C500000F082F8FEE7000030380240004C0040CF
:104C60008C0100207C70000800000020D141000869
:104C7000654B0008D55F000830B516490020034693
:104C80008978154C01E0401CC0B2884207D2225CF2
:104C9000202AF8D0092AF6D001E0491EC9B2814283
:104CA00013D9621812F8012C202AF6D0092AF4D060
:104CB0000BE0225C401CA2F16105C0B2192D01D8A5
:104CC000203AD2B2E2545B1CDBB28842F1D300201E
:104CD000E05430BD140000204003002010B5EFF375
:104CE000058111B16FF0050403E0002408B101F063
:104CF00045F8204610BD38B50546EFF3058010B1E4
:104D00006FF005040CE0002401F028FD291A009042
:104D1000002903DD684601F057F801E06FF0030455
:104D2000204638BDEFF3058008B101F01DBD01F04C
:104D300015BD0000EFF3058010B16FF0050070475E
:104D40000448016811B14FF0FF3070470121016044
:104D5000002070470C01002010B5EFF3058010B162
:104D60006FF0050010BD08480168012902D04FF01E
:104D7000FF3010BD054A002182F8141D0221016098
:104D800001F0AAF8002010BD0C0100200BE000E0AB
:104D9000F8B51D466FF003026FF002064FF00004F5
:104DA000EFF30583A3B1F0B1E9B1E5B900220092B8
:104DB0006A4601F0E5FB012817D10098B0B10C4913
:104DC0004FF080500860BFF34F8FBFF36F8F0DE03F
:104DD00048B141B12A4601F037FB012806D025B180
:104DE0006FF0010402E0144600E034462046F8BDAE
:104DF00004ED00E0F8B514464FF00005EFF305822E
:104E000012BB08B301B3A4B1D4E9023263B1502A92
:104E10001AD32269C2B1676900FB01F6B74213D306
:104E2000009501F08AF907E072B9226962B96269F6
:104E300052B9002201F060F9050005D00CB12168DB
:104E400000E0002100F064FF2846F8BDF8B51D46DB
:104E50006FF003026FF002064FF00004EFF30583DA
:104E6000ABB100B3F9B1F5B90022134600926A461E
:104E700001F08AFA012818D10098B8B10C494FF016
:104E800080500860BFF34F8FBFF36F8F0EE050B1BB
:104E900049B100232A4601F0C7F9012806D025B1FF
:104EA0006FF0010402E0144600E034462046F8BDED
:104EB00004ED00E02DE9FF414FEA01034FF000054A
:104EC000EFF30581039549BB40B3802718210024E7
:104ED0004AB3166806B1344696691EB13146761E4D
:104EE000382E02D21679F60703D0002004B0BDE8B0
:104EF000F081566906B1B708D2F808C0BCF1000FBE
:104F00000DD0D5685C2D18D312693AB136B18DE851
:104F100006103A46214601F0E8FB03900DE0D66802
:104F20005EB912694AB903AACDE90012BAB22146A4
:104F300001F0AEFB012800D003950398D6E70000EE
:104F40009FED040A002180ED030A80ED040A01763A
:104F5000704700000000000010B504462DED028BE4
:104F6000F0EE618A007EB0EE602A98B3D4ED050AB7
:104F700072EE601A41EE210AC4ED050A30EE608A35
:104F8000D4ED010A94ED030A9FED161A60EE880A2B
:104F900000EE810AF0EE680AFFF774FD84ED030A63
:104FA000D4ED000A94ED041A00EE880A38EE411A96
:104FB000D4ED020A84ED048A00EE810AF0EE680A5C
:104FC000FFF760FDBDEEC00ABDEC028B10EE100ACB
:104FD00000B210BDFFE784ED052A01202076F0EE37
:104FE000420ACBE76F12833AB5EEC00AF1EE10FA2F
:104FF00001DC9FED010A704700000000F8B5FFF7E3
:105000003BFE3C4C002500E0641C2078A0B13D280C
:1050100005D03A2803D0202801D00928F4D104F87B
:10502000015B00E0641C20783D28FBD03A28F9D0D1
:105030002028F7D00928F5D02FA230A130A0FFF703
:1050400031FD314E012708B137734FE02FA230A157
:1050500031A0FFF727FD08B1777347E030A233A1F5
:1050600033A0FFF71FFDA8B169462046FFF790FC6B
:10507000207820B30098007808BBB5EEC00AF1EEA6
:1050800010FA33DB10EE100A2B4988422EDC86ED35
:10509000000A2BE029A22BA12CA0FFF703FD78B179
:1050A0000A2269462046FBF7E4F9217839B10099D4
:1050B000097821B918B1B0F57A7F17D8706015E07A
:1050C00024A225A126A0FFF7EDFC78B10A226946AB
:1050D0002046FBF7CEF9217841B10099097829B92A
:1050E00020B142F21071884200D8B06006482C38D6
:1050F0008570F8BD400300204F4E000052554E0011
:105100005354415254000000400000204F464600D6
:1051100048414C540000000053544F500000000020
:10512000464C59574845454C0000000052504D0030
:10513000535045454400000000A00C4653484F54CE
:105140005300000042554C4C45540000434F554E0F
:105150005400000047415000504552494F44000060
:10516000494E54455256414C00000000F8B5114ECE
:105170000027114C114D13E0BDF80000C0B20D28FE
:1051800008D00A2806D0A178272908D27054491CD3
:10519000A17005E0A07818B1FFF730FF00E0A7701C
:1051A00000231A4669462868FFF7F2FD0028E3D07D
:1051B000F8BD000040030020140000200C00002077
:1051C0002DE9F041134C0F460546E6682068001DA6
:1051D00000F0A0FC681C07D137B12168BDE8F041A0
:1051E0000D48091D00F0E6BC20683544B542456015
:1051F000216805D2A06BBDE8F041091D00F0C2BCDA
:10520000606B091D00F0BEFCA06A854200D2A56259
:10521000BDE8F081BC0000208C0900202DE9F041A0
:10522000054600F0D3FC2D4CA068401CA06020680F
:105230002B4F10B1606930B32BE02560A0680128C6
:1052400027D1002606EB860007EB800000F08CFCDF
:10525000761C382EF6D3234800F086FC2148143003
:1052600000F082FC1F48283000F07EFC1D483C30D6
:1052700000F07AFC1B48503000F076FC194860635F
:105280001430A06305E02068E96AC06A884200D84B
:105290002560606A401C60626864E86A216988422F
:1052A00000D9206100EB800007EB8000291D00F091
:1052B00081FC00F0ABFC606900280CD02068E96A32
:1052C000C06A884207D208494FF080500860BFF397
:1052D0004F8FBFF36F8FBDE8F0810000BC0000204E
:1052E000DC0400203C09002004ED00E038B500F0AB
:1052F0006DFC104C2068C8B90F4800F035FC0E4812
:10530000143000F031FC0C48E060143020610A4B8E
:105310000020F03B009003F1500210210A2000F021
:105320000CFF206010B105A100F0F2FCBDE8384090
:1053300000F06CBCF8000020900A0020546D7251FF
:105340000000000030B4026C0B46002A0BD0C1688C
:105350001144C1608468A14201D30168C16030BCBE
:105360001846FBF7BFB830BC70472DE9F041856B9C
:10537000174604460026026C82B1C7B1E068FBF70D
:10538000B1F8E168206C091AE1602268914202D20A
:10539000A168081AE060022F16D017E02068A8B9AB
:1053A000A06801F04DFA06460020A0600EE060689B
:1053B000FBF798F8216C606808446060A168884237
:1053C00004D32068606001E005B16D1E6D1CA5630B
:1053D0003046BDE8F08110B5044690F8590058B148
:1053E00001280CD002280FD0502080F31188BFF381
:1053F0004F8FBFF36F8FFEE7206B00F01BFC204642
:10540000BDE8104000F016BC10BD000010484FF47D
:105410007051420706D0C01D0D4920F00700411A07
:10542000C1F570510B4A00230144C2E90003083959
:10543000183A21F0070111604B600B600B1AC0E9AC
:10544000001393604FF000405360506170470000BC
:105450007011002028010020144E154CA6F29C4724
:105460004FF08058DFF84C9012E000BF00F0AEFB28
:10547000F068C568281D00F04DFBA068401EA060C4
:105480006068401E606000F0C1FB2846FFF7A3FF84
:1054900060680028EAD138680128F9D9C9F8008085
:1054A000BFF34F8FBFF36F8FF2E700007809002042
:1054B000BC00002004ED00E070B51D46049C51B115
:1054C000C4F80020C4E90F010121204600F068FE65
:1054D00084F84C5070BD2460F4E700002DE9F05FC3
:1054E0008846DDE90B941546834691009A460A9E4C
:1054F000A522206BFBF76DF86FF00301206B01EB29
:105500008501084420F00707780707D0502080F372
:105510001188BFF34F8FBFF36F8FFEE70025B8F1FF
:10552000000F0FD05FF00000221818F8001082F86A
:10553000341018F8001011B1401C1028F4D384F86E
:10554000435001E084F83450382E00D33726E66209
:10555000C4E91365201D00F012FB04F1180000F0EF
:105560000EFB2461C6F138006462A061656584F8B1
:10557000585052465946384600F05AFA2060B9F160
:10558000000F01D0C9F80040BDE8F09F30B51149C7
:1055900000E011460A688242FBD34B685C188442E3
:1055A00003D1406818444860084643681C18944278
:1055B00009D1084C183C2468A24209D052681A4408
:1055C00042600A6812680260814200D0086030BD03
:1055D0000460F9E72801002070B5002441600B4DFC
:1055E0000061914206D8D11A8269914206D2011D0A
:1055F000286907E09A4203D2994201D3012403E0CB
:10560000011DE86800F0BEFA204670BDF8000020D9
:1056100010B5044600F0DAFAA06B28B15FF0000480
:1056200000F0F4FA204610BD0124F9E730B589B046
:105630003C4D6EE00498002806DADDE90601059A83
:1056400090470498002864DB069C606910B1201D17
:1056500000F060FA03A800F0D7F8024604980A2880
:1056600057D2DFE800F00505052D334A05052D3337
:1056700094F8280040F0010084F828000599A069FA
:10568000059B01442046FFF7A7FF68B3216A204627
:10569000884794F8280040073BD5002000900598E3
:1056A000A169002342181946204601F0D3F9D8B960
:1056B000502080F31188BFF34F8FBFF36F8FFEE749
:1056C00014F8280F20F00100207022E094F8280040
:1056D00040F0010084F828000598A06128B18118E5
:1056E00013462046FFF778FF13E0502080F311881F
:1056F000BFF34F8FBFF36F8FFEE794F82800810749
:1057000003D4204600F096FA03E020F0010084F86C
:105710002800002204A9286800F096FE002889D1FC
:1057200009B030BDF80000202DE9FC410F460546C8
:1057300000F016FC01A800F067F80446019818B1C3
:1057400001F0F6F8BDE8FC81254EAFB13069006884
:10575000D0B30027291B3A46306800F0EDFA01F07B
:10576000E7F80028EED11F494FF080500860BFF3E2
:105770004F8FBFF36F8FE5E7A542EBD801F0D8F864
:10578000F0682746C068C468201D00F0C3F994F88B
:105790002800410719D5A0692B4641193A462046F1
:1057A000FFF71AFFA8B100200346014600902A46E1
:1057B000204601F04FF960B9502080F31188BFF303
:1057C0004F8FBFF36F8FFEE707E020F0010084F8F2
:1057D0002800216A20468847B4E70127BAE700007D
:1057E000F800002004ED00E00648416B096829B18B
:1057F000416BC968C9684968816270474FF0FF31E1
:10580000FAE70000BC00002070B5054600F0A6FFD6
:10581000064E0446B068844203D200F009F8012025
:1058200000E0002028602046B46070BDF800002031
:10583000F8B5194D20E0C068C4680668201D00F066
:1058400069F9216A2046884794F82800400713D553
:10585000A0693044B04206D924616060211DE86827
:1058600000F090F908E0002003460146009032461F
:10587000204601F0EFF838B1E86801680029DAD174
:105880002969C5E90310F8BD502080F31188BFF3E2
:105890004F8FBFF36F8FFEE7F80000200848406885
:1058A000401C4FF0500080F3118804D0BFF34F8F9D
:1058B000BFF36F8FFEE7BFF34F8FBFF36F8FFEE72E
:1058C00030010020074CE068016841B1C068002148
:1058D000D0F80000FFF728FFFFF7A8FEF3E701214B
:1058E0000020F7E7F80000202DE9F041044600F021
:1058F0006DF994F9455004F1240609E0606A48B155
:10590000304600F0DDFF08B100F0ACFA6D1E6DB25C
:10591000002DF3DC4FF0FF3684F8456000F076F997
:1059200000F054F994F9445004F1100709E020699B
:1059300048B1384600F0C4FF08B100F093FA6D1E7C
:105940006DB2002DF3DC84F84460BDE8F04100F056
:105950005DB900002DE9F0410546002700F000FB8D
:10596000324E306808B9FFF751FD706905424ED1DB
:10597000C5B3083568070ED005F00700C0F1080070
:105980000544680707D0502080F31188BFF34F8F7C
:10599000BFF36F8FFEE72DB37068854237D8234879
:1059A000183001460C6801E020460C466168A942A7
:1059B00002D221680029F7D131688C4227D00768CC
:1059C0002168016060680837411B10290FD96019F0
:1059D000420708D0502080F31188BFF34F8FBFF3E8
:1059E0006F8FFEE713E041606560FFF7CFFD6168F0
:1059F0007068401A7060B268904200D2B0607069FE
:105A000001430020C4E90001F068401CF06000F090
:105A10008FFF780707D0502080F31188BFF34F8F96
:105A2000BFF36F8FFEE73846BDE8F081100100201C
:105A300010B5031F4FF080741C601B1F21F0010183
:105A40001960191F044B0B6014390A60091F6FF0AD
:105A5000020244380A6010BD9D58000838B50E4C4B
:105A6000A068002817D001684A6922F080024A61C4
:105A7000806B08B1FCF7F7FCA0680021C1842022EC
:105A800080F8412041640068026842680092026820
:105A900040680090217038BD1400002070B58AB0B5
:105AA0000E460546144618216846FAF7BCFD002D3F
:105AB0001CD02846FCF747FA002817D00020029097
:105AC000039008200096002106AA049034F81130B3
:105AD00002EB41001E0A491C0670C9B2437004293A
