:020000040800F2
:10000000C853002045030008E73D0008CF3500082D
:10001000E53D00084D1B0008DD420008000000001F
:100020000000000000000000000000008502000841
:10003000251C000800000000E1020008F13D000856
:100040005F0300085F0300085F0300085F03000808
:100050005F0300085F0300085F0300085F030008F8
:100060005F0300085F0300085F0300085F030008E8
:100070005F030008691B00085F030008751B000888
:100080005F0300085F0300085F0300085F030008C8
:10009000511B00085F0300085F0300085F030008AE
:1000A0005F030008B13E00085F0300085F0300081B
:1000B0005F0300085F0300085F0300085F03000898
:1000C0005F0300085F0300085F0300085F03000888
:1000D0005F0300085F0300085F0300085F03000878
:1000E0005F0300085F0300085F0300085F03000868
:1000F0005F0300085F0300085F0300085F03000858
:100100005F0300085F0300085F0300085F03000847
:100110005F0300085F0300085F0300085F03000837
:100120005F0300085F0300085F0300085F03000827
:100130005F03000800000000000000005F030008EB
:100140005D1B00085F0300085F0300085F030008F1
:100150005F0300085F0300085F0300085F030008F7
:100160005F0300085F0300085F0300085F030008E7
:100170005F0300085F0300080000000000000000AB
:100180005F0300085F03000800F002F800F06AF85F
:100190000AA090E8000C82448344AAF10107DA45E2
:1001A00001D100F05FF8AFF2090EBAE80F0013F0CA
:1001B000010F18BFFB1A43F001031847B86900008C
:1001C000D86900000A444FF0000C10F8013B13F00E
:1001D000070408BF10F8014B1D1108BF10F8015BA0
:1001E000641E05D010F8016B641E01F8016BF9D193
:1001F00013F0080F1EBF10F8014BAD1C0C1B09D1EA
:100200006D1E58BF01F801CBFAD505E014F8016B5B
:1002100001F8016B6D1EF9D59142D6D370470000ED
:100220000023002400250026103A28BF78C1FBD8FF
:10023000520728BF30C148BF0B6070471FB506F09A
:1002400057FB00F0C7FA04000020002106F032F945
:10025000401C60600020002106F042F9E0601FBDF4
:1002600010B510BD00F01AFB1146FFF7E7FF04F0D0
:10027000FFF900F06CFB03B4FFF7F2FF03BC00F0E2
:10028000EBFD00002C4B19680868B0E8F04F80F3D4
:100290000988BFF36F8F4FF0000080F3118870471B
:1002A0000000000008480068006880F308884FF0EC
:1002B000000080F3148862B661B6BFF34F8FBFF3BE
:1002C0006F8F00DF00BF00BF08ED00E0DFF80C001B
:1002D000016841F470010160704700BF88ED00E0E3
:1002E000EFF30980BFF36F8F134B1A681EF0100FE6
:1002F00008BF20ED108A20E9F04F106009B44FF0DC
:10030000500080F31188BFF34F8FBFF36F8F05F05C
:1003100033FB4FF0000080F3118809BC19680868AE
:10032000B0E8F04F1EF0100F08BFB0EC108A80F359
:100330000988BFF36F8F7047B4000020EFF305808A
:10034000704700000948804709480047FEE7FEE77C
:10035000FEE7FEE7FEE7FEE7FEE7FEE7FEE7FEE775
:1003600004480549054A064B70470000A13E0008B5
:1003700089010008C84D0020C8530020C84F002044
:10038000C84F002053EA020C00F069802DE9F04BC1
:100390004FF00006002B1FBFB3FA83F503FA05F4F4
:1003A00024FA05F65E4012BF1643B2FA82F502FA4D
:1003B00005F4C5F120051EBF22FA05FC44EA0C0431
:1003C000203556EA044C4FEA144418BF641C4FF021
:1003D00000084FF00009904271EB030C39D300295B
:1003E00019BFB1FA81F701FA07F6B0FA80F700FAFF
:1003F00007F6C7F120071EBF20FA07FC46EA0C06E5
:100400002037B6FBF4FCA7EB0507103F07F01F0BE6
:10041000CBF120060CFA0BFB2CFA06F644BFB346D0
:100420000026202FA4BF5E464FF0000B5BEA060CAF
:1004300008BF4FF0010B19EB0B09ABFB027C48EB3B
:100440000608C01B06FB02CC0BFB03CC71EB0C01B6
:10045000C1E70B46024641464846BDE8F08B13B55E
:100460004FF000004FF00001AFF30080BDE81C40EA
:1004700070472DE9F05F93460F46804604460026FC
:1004800000F044F9D0F80090824614F8015B2DB1D9
:1004900000F034F90068405DC007F6D12B2D02D082
:1004A0002D2D1AD0641E0021CAF800105A46394674
:1004B000204600F02FF9014627B13868A04201D14B
:1004C000C7F80080DAF80000022809D0CAF80090C6
:1004D000700505D54842BDE8F09F46F48066E2E726
:1004E0000846F8E7032A40F2308010F0030C00F0D1
:1004F000158011F8013BBCF1020F624498BF11F85E
:1005000001CB00F8013B38BF11F8013BA2F1040216
:1005100098BF00F801CB38BF00F8013B11F003038E
:1005200000F02580083AC0F0088051F8043B083AF2
:1005300051F804CBA0E80810F5E7121D5CBF51F894
:10054000043B40F8043BAFF30080D20724BF11F80E
:10055000013B11F801CB48BF11F8012B24BF00F873
:10056000013B00F801CB48BF00F8012B704710B5E4
:10057000203AC0F00B80B1E81850203AA0E818509B
:10058000B1E81850A0E81850BFF4F5AF5FEA027C5C
:1005900024BFB1E81850A0E8185044BF18C918C0CB
:1005A000BDE810405FEA827C24BF51F8043B40F86C
:1005B000043B08BF7047D20728BF31F8023B48BF51
:1005C00011F8012B28BF20F8023B48BF00F8012B8F
:1005D000704702F0FF0343EA032242EA024200F0BE
:1005E00002B84FF000020429C0F0128010F0030C92
:1005F00000F01B80CCF1040CBCF1020F18BF00F816
:10060000012BA8BF20F8022BA1EB0C0100F00DB8C4
:100610005FEAC17C24BF00F8012B00F8012B48BF22
:1006200000F8012B70474FF0000200B513469446C6
:100630009646203922BFA0E80C50A0E80C50B1F13A
:100640002001BFF4F7AF090728BFA0E80C5048BF4E
:100650000CC05DF804EB890028BF40F8042B08BFEC
:10066000704748BF20F8022B11F0804F18BF00F8E8
:10067000012B70474FF0013C50F8042B51F8043B1C
:100680009A4221D1A2EB0C03934313EACC1317D166
:1006900050F8042B51F8043B9A4215D1A2EB0C03FD
:1006A000934313EACC130BD150F8042B51F8043BBD
:1006B0009A4209D1A2EB0C03934313EACC13DBD08B
:1006C0004FF00000704700BFD01A01BAB1FA81F1B3
:1006D00001F0180122FA01F0CB40C1F12001DBB298
:1006E000C0B2C01A2CFA01F3D11A914311EAC31116
:1006F000E6D17047704770477047000010B500F0B2
:1007000069F8001D10BD00BFAD5D000000487047D6
:10071000684D00202DE9F05F824615468B46002784
:100720000AF10104B9460078302801D09DB113E0E8
:1007300014F8010B0127782803D0582801D045B1BF
:100740000AE00DB1102D07D1002714F8010B102578
:1007500002E0082500E00A250026B0460EE005FB71
:10076000080005FB06F101271FFA80F801EB10468F
:10077000B6F5803F00D3B94614F8010B294600F0C6
:100780002DF80028EBDABBF1000F05D00FB1641E85
:1007900000E05446CBF80040B9F1000F06D0FFF757
:1007A000B5FF02210160C81EBDE8F09F48EA06407F
:1007B000FAE77CB5054600236846CDE9003300F032
:1007C00039F86946284603F0AFFE7CBD0048704703
:1007D000684D002000487047884D00203A2800D21C
:1007E000303820F02002412A01D3A2F1370088429C
:1007F00001D34FF0FF3070470FB4002300B589B02C
:100800000CA900910B99CB60214B7B440693214BA3
:100810007B44079304236FF00042CDE901321E4A66
:100820007A446B4608920246002006F0CEF809B0E2
:100830005DF814FB70B506464FF0FF3015460C46C8
:10084000324686B00091CDE901016946002004904E
:1008500004A8FFF7D1FF02460498211825B108B17A
:10086000084600E020462860049800280DD0002AA1
:1008700002DD0098884208D03246081B6946009481
:10088000CDE9010404A8FFF7B7FF06B070BD000072
:100890000101000019010000D90000007546FFF7B2
:1008A00095FFAE4605006946534620F00700854691
:1008B00018B020B5FFF754FDBDE820404FF000060A
:1008C0004FF000074FF000084FF0000B21F0070138
:1008D000AC46ACE8C009ACE8C009ACE8C009ACE87B
:1008E000C0098D46704710B5FFF710FF006810BDB6
:1008F00010B50446FFF70AFF046010BD10B50446AA
:10090000FFF7FCFE0068005D00F0010010BD4268CA
:1009100042B1016811F8013B23B1521EC0E9001237
:10092000184670470121C160881E704742685AB15D
:10093000C368016843B983688B4205D0491E521CC5
:10094000C0E90012002070474FF0FF30704710B52B
:100950000446AFF300802046BDE81040FFF78BBC93
:100960002DE9FF4F06468BB00878FF2806D0491CBA
:100970002D2805D000244FF0000908E000200CE0ED
:100980000124F8E709EB8903491C00EB43090878C7
:10099000FF28F7D114B1C9F1000081461078002575
:1009A0002C46AA4629462D2801D02B2804D1521CBA
:1009B0002D2813D0002082468B461078FF280FD0B8
:1009C0004FF0000C0A21521CA5FB017804FB0181A9
:1009D00005FB0C11C5194BEB0104EEE70120EAE71A
:1009E000002108464FF00000BAF1000F02D000EBE2
:1009F00080004008C0F38157012F01DD4FF0FF3721
:100A00000E9955EA040009EB01080BD04FF00209DA
:100A100018F5FA7F16DA4FEACA70002F706008DD09
:100A2000012007E04FEACA70C6E900B00FB0BDE888
:100A3000F08F00203060FFF769FEC0F800901821A9
:100A4000084616E0B8F5FA7F18DD002F02DAF748FD
:100A5000784401E0F6487844D0E90010C6E9001077
:100A600040EACA707060FFF751FEC0F80090142190
:100A700008460FB0BDE8F04F05F044BF002108461E
:100A80004FF00000B8F10001099002DAC7F100024E
:100A900000E03A4601DAC8F1000106A800F0E2F9E8
:100AA00006AB93E8070003AB83E8070044F23E007F
:100AB0005BEA04010090584604D144F21E012C4622
:100AC0005D460091210C0904014306D100992404DC
:100AD00044EA15442D041039009104F07F4101438C
:100AE00006D10099240244EA15642D0208390091C8
:100AF00004F07041014306D10099240144EA1574C1
:100B00002D01091F009104F04041014306D10099D5
:100B1000A40044EA9574AD00891E009104F00041E0
:100B2000084304D100986D196441401E00904FF0B5
:100B300001033A466846B8F1000FCDE9014503A923
:100B400002DD00F0CCFE01E000F09FFEBAF1000FE4
:100B500004460D4601D084F00044002108464FF0C1
:100B60000000099940F2FF77484010F00C0F07D1C0
:100B700024F00040284303D0C4F30A50B84212D1F5
:100B8000FFF7C4FDC0F80090C4F30A50B8420AD180
:100B9000A8487844D0E90010C6E9001004F00041EC
:100BA0000843706042E7C6E900543FE72DE9FF4F74
:100BB0001F464FF0000A4FF0FF38454691B0D7E985
:100BC0000146CDF83CA0FFF705FEC0680168405C17
:100BD0001090B96912986D1C8847396A8146884718
:100BE0000028F6D1B9F1FF3F0AD0002E24F4D064DA
:100BF00011DDB9F12B0F08D0B9F12D0F0BD102E0A7
:100C0000404615B013E744F48064B96912986D1C2E
:100C10008847761E8146600504A901D52D2000E095
:100C20002B20002E01F1010B0DF130088DF8100082
:100C30003FDDB9F1690F08D0B9F1490F05D0B9F11D
:100C40006E0F02D0B9F14E0F1CD13B4601A80095A2
:100C500080E85002DDE912126FF0020005F0B9FEE3
:100C6000C11CCED10EE0B96912986D1C884781462F
:100C70001398761E44F4007405600F98401C002EF3
:100C80000F9016DDB9F1300FEDD0B9F1780F02D029
:100C9000B9F1580F0DD10F9801280AD13B46CDE983
:100CA0000054DDE91212001F029605F090FEC11CEF
:100CB000A7D1109989453ED144F0800406E01399EC
:100CC000681CAAF1010A44F400740860B9696D1C3B
:100CD0001298761E884730288146F0D02BE0109974
:100CE000894505D1200603D4761E44F0800418E01F
:100CF000484603F02CFC08B3761E0DF123018B450A
:100D000044F4007408D2A9F130000BF8010B20065E
:100D100007D5AAF1010003E0200602D40AF1010080
:100D20008246A00502D51399681C0860B96912981B
:100D30006D1C88478146002ED1DC53E0002E51DD2A
:100D4000B9F1650F02D0B9F1450F4BD1A00549D5D6
:100D5000B9696D1C1298761E24F440748847002EE1
:100D600081460CDD2B2804D0B9F12D0F07D144F4B6
:100D70008074B96912986D1C8847761E8146E0051B
:100D800001D52D2100E02B2108F8011BCDF80080B2
:100D900021E0761E0DF13901884544F400740CD22F
:100DA000A9F1300010F0FF0088F8000002D100998E
:100DB000884509D908F1010806E0E00501D51E487B
:100DC00001E042F20F708246B96912986D1C8847A3
:100DD000814613980560002E04DD484603F0B7FBFA
:100DE0000028D6D1F96912988847FF2053468BF81E
:100DF000000088F8000000200A900B9004AA0CA9BB
:100E00000AA8FFF7ADFDA00502D46FF00100F8E6D7
:100E100014F0240F12D0E0071CD13868DDE90A1263
:100E2000031D3B600068C0E9001213E04861000048
:100E30003A610000FE5F0000F1D8FFFF0AA9684692
:100E400003F072FBE00705D13868009A011D396094
:100E5000006802602846D4E601491820ABBEFEE7D0
:100E6000260002002DE9F047814616468AB0354833
:100E700078440DC88DE80D0032487844801C03ACDE
:100E80000DC884E80D0041F69B300844372190FBE3
:100E9000F1F290FBF1F5A5F1800501FB12041B3C7A
:100EA00002D56442012000E00020DFF898A08046CF
:100EB0000027FA44AAF1BE0A0EE0E0070AD0324643
:100EC000684607EB470101230AEB810100F0F2FCC1
:100ED0008DE8070064107F1C002CEED1194F7F4471
:100EE000AE3F19E0E80715D007EB04100DF1180A22
:100EF00090E80E008AE80E00C068F04201D198190F
:100F000008903246012306A903A800F0D3FC03ABE6
:100F100083E807006D10641C002DE3D14FF001033E
:100F200032466946B8F1000F03A802D000F098FCE1
:100F300001E000F0BFFCC9E90001C9F808200AB0CF
:100F4000BDE8F087B85C0000704700002DE9FF4F56
:100F50001F464FF03C0987B04FF00042DDE9141006
:100F600001F10108DDF858A002EA4050039000208A
:100F700005908346054604460490B969461E0898C4
:100F80008847AAF1010A0290BAF1000F3BDD0298EE
:100F90002E2815D01021FFF721FC00282EDB4FF062
:100FA000010B0599014317D0B9F1000F0BDB4A463D
:100FB000C11700F0F5F905430C43A9F1040905E058
:100FC000012004900BE008B145F0010501200590D7
:100FD000049820B9361D02E0049800B1361FB969A3
:100FE000089808F101088847BBF1000FAAF1010A2F
:100FF0000290C9D00999C1F80080C5E7029870280D
:1010000008D0502806D0F96908988847BBF1000F2E
:1010100014D04FE0002002900120BBF1000F04909B
:1010200009D0B969089808F101088847AAF10109AF
:10103000B9F1000F07DCF969089888476FF00100E3
:101040000BB0BDE8F08F2B2804D02D280CD14FF029
:10105000FF300490B969089808F101088847A9F1A0
:101060000109B9F1000FE6DD411CE4D00A21FFF7C8
:10107000B5FB0028DFDB029908F1010801EB8101D3
:1010800000EB41000290B969089888470A21FFF7F0
:10109000A5FB099AA9F10109B9F1000FC2F8008076
:1010A00001DD0028E7DAF969089888470499029871
:1010B00000FB016655EA040004D004F04041090039
:1010C00002D006E0039898E0A40044EA9574AD00CD
:1010D000B61E04F00041080002D16D196441761E6D
:1010E000159810F0240F03D04FF00B095C4803E073
:1010F0004FF028096FF07D008246564507DAAAEBCB
:1011000006018944B9F1410F01DD4FF04109012089
:101110000021A9F1010200F043F9024628400B46E4
:101120002140084301D0012100E00021501E02911E
:1011300043F1FF3128402140084301D0012000E065
:1011400000200299834651EA0B014FD00021084646
:101150004FF00000039900F4400039B100EB80002B
:101160004FF4400100EBD07001EA600080150128C7
:1011700002DD4FF0FF3000E013D0401C36D0029863
:1011800060B3BBF1000F0CD14A460120002100F0F2
:1011900007F928402140084301D0012000E0002049
:1011A000E0B101204A46002100F0FAF80346401958
:1011B0000A4661412D1A8C4111D3B9F1400F09DD66
:1011C000159810F0240F02D0AAF1340603E0AAF11A
:1011D000170600E0761C00254FF0004406E05B1E79
:1011E00042F1FF3220EA030521EA0204CAF10100BC
:1011F000B04206DA1B490398084301900020009092
:101200000EE0039AC4F3D321E80A0A43164940EAE0
:1012100044500A433146CDE90002684603F08DF997
:10122000159810F0240F0BD01598C00715D1386809
:10123000DDE90012031D3B600068C0E900120CE00C
:1012400002A8694603F070F91598C00705D13868FF
:10125000029A011D3960006802604046F0E6000015
:1012600002FCFFFF0000F07F0000F03F2DE9FF4F80
:1012700092461D4685B04FF00041DDE9124BDDE995
:1012800014727F1E01EA4B50414940F0FF4940EA89
:101290000108002122F020004928049102D04E28A4
:1012A00028D04CE03BA0012607C88DE80700A969BB
:1012B0000698641C88477F1E014606D41DF8060068
:1012C00018B121F0200181420BD0E96906988847C6
:1012D000032E34D0082E32D06FF0010009B0BDE8E3
:1012E000F08F761C032E01D0082EE0D1601CCAF8C6
:1012F0000000DCE7A9690698641C88477F1E2AD491
:1013000020F02000412826D1A9690698641C88474E
:101310007F1E20D420F020004E281CD1A9690698F9
:10132000641C88477F1E48F4002849F48009CAF8E5
:10133000004001D4282806D0E969069888475FEA6A
:10134000CB7012D022E0A9690698641C88477F1EE2
:1013500001D4002803DAE96906988847BCE7292800
:10136000F1D1641CCAF80040E9E71BF0240F07D054
:1013700028680499031D2B600068C0E9001805E087
:101380002868021D2A600068C0F800902046A5E782
:101390000000F07F494E46494E4954590000000074
:1013A000B2F120030AD5C2F1200301FA02F120FABA
:1013B00003F300FA02F041EA0301704700FA03F177
:1013C0004FF00000704720F07F4C80EA030023F0CC
:1013D0007F47ACEB070303F57C5300F0004003F1BB
:1013E000FF032DE980494FEA154B09B44FEA144336
:1013F00025EA0B4E24EA03480FF2042606EB1327D6
:1014000049083E785FEA320203FB0667C7F500072A
:1014100007FB06F64FEA54374FEAD64606F10206B6
:1014200007FB066CCCF1005C4FEA1C472CEA074C2A
:1014300007FB06F40CFB06F504EB15464FEA96167F
:1014400034BF00204FF000404FEAD13706FB07FCC5
:101450004FEA1C4C0CFB0BF7D21B03FB0CF761EBA8
:1014600007010CFB0EF7B0EB074072EB17420CFBC9
:1014700008F734BFA2EB0742B2EB074261EB17411A
:101480004FEA0C444FEA910706FB07FC4FEA1C4C5D
:101490000CFB0BF7B0EBC74072EB573203FB0CF7BA
:1014A00034BFA2EBC742B2EBC74261EB57310CFB32
:1014B0000EF7B0EBC70072EB57720CFB08F734BFA6
:1014C000A2EBC702B2EBC70261EB5771039F4FEA71
:1014D000816141EA921104EBCC044FEAD1374FEA23
:1014E000826206FB07FC42EA90124FEA80604FEAF4
:1014F0001C4C0CFB0BF7D21B03FB0CF761EB070139
:101500000CFB0EF7B0EB074072EB17420CFB08F731
:1015100034BFA2EB0742B2EB074261EB17414FEA3F
:101520008C554FEA910704EB9C2406FB07FC4FEA1D
:101530001C4C0CFB0BF7B0EBC74072EB573203FBB4
:101540000CF734BFA2EBC742B2EBC74261EB573195
:101550000CFB0EF7B0EBC70072EB57720CFB08F7F1
:1015600034BFA2EBC702B2EBC70261EB577115EBB8
:101570004C254FEA816141EA92114FEA82624FEABB
:10158000D13742EA901206FB07FC44F100044FEA0F
:1015900080604FEA1C4C0CFB0BF7D21B03FB0CF7D3
:1015A00061EB07010CFB0EF7B0EB074072EB174243
:1015B0000CFB08F734BFA2EB0742B2EB074261EB2A
:1015C000174115EB1C154FEA813141EA92414FEA70
:1015D000823242EA90424FEA80304FEA0C7644F180
:1015E000000448EA03434EEA0B484FF0000EB2EB0A
:1015F000080C71EB030724BF624639464EEB0E0E12
:101600004FF0000B0018524149414BEB0B0BB2EB72
:10161000080C71EB03077BF1000B24BF62463946CF
:101620004EEB0E0E4FF0000B0018524149414BEBB0
:101630000B0BB2EB080C71EB03077BF1000B24BF23
:10164000624639464EEB0E0E51EA020718BF46F0CD
:10165000010616EB0E7655F1000254F1000103D598
:10166000BDE88901BDE80088BDE88901BDE8004802
:10167000B619524141EB0101A3F10103704780808B
:101680007F7E7D7C7B7A79787776767574737271DC
:1016900071706F6E6E6D6C6C6B6A6A696868676694
:1016A00066656464636362616160605F5F5E5E5D26
:1016B0005D5C5C5B5B5A5A5959585857575656559A
:1016C00055555454535352525251515050504F4FFC
:1016D0004F4E4E4D4D4D4C4C4C4B4B4B4A4A4A494C
:1016E000494948484847474747464646454545448F
:1016F0004444444343434342424242414141000047
:1017000046EA0646A3F570534FEA164646EA4256A5
:101710004FEAD22242EA415210B54FEAD121A3F159
:10172000010300F02FF820F0004000F1020C00F05F
:10173000004701EB00501146BCF5006F40EA07007E
:1017400000D210BDBAF1000F0AD01CB503B44FF09F
:1017500004004FF004014FF000000FBCBDE8104042
:101760004FF00001BBF1010FB9BF04484FF0FF314A
:101770000348002140EA070010BD00BFFFFFEF7FD4
:101780000000F07F002B9C4630D477002BD01CB596
:101790004FEA370703B44FF010004FF01001BAF1D1
:1017A000000F06D0BCF1000FDCBF40F0080040F095
:1017B00008014FF000000FBCBDE810400BF1010B19
:1017C000BBF1010F08BF5FEA170722BF12F1010248
:1017D00011F101014FF0004143F1000300F000401E
:1017E00043EA00007047F9D35708D0E746EA0646B7
:1017F00013F1400F4FEA16461FDD13F1200FDFBF34
:1018000016430A46002120335B42BED0C3F12007B5
:1018100046EA064602FA07F74FEA164646EA070680
:10182000C3F1200722FA03F201FA07F721FA03F1C4
:101830004FF0000342EA0702A7E746EA020646EA3B
:1018400006464FEA164646EA0106BCBF46EA064689
:10185000360C4FF000034FF000024FF0000194E708
:101860002DE9804C9A46934670B491E8380007C839
:1018700031EA400C48BF34EA430C03D5FFF7A3FD1F
:10188000FFF780FFF0BCBDE8008C2DE9804C9A4644
:10189000934670B491E8380007C831EA400C48BF5D
:1018A00034EA430C03D5FFF78EFDFFF729FFF0BCA8
:1018B000BDE8008C2DE9804C9A46934670B491E8BF
:1018C000380007C810F0804F08BF13F0804F03D1D5
:1018D00000F01AF8FFF756FFF0BCBDE8008C2DE9C8
:1018E000804C9A46934670B491E8380007C810F0CF
:1018F000804F08BF13F0804F03D100F005F8FFF7C9
:10190000FFFEF0BCBDE8008C20F07F4780EA0300BA
:1019100023F07F4C07EB0C03A3F57C5300F0004051
:10192000A3F1FE0392F0000F00F0B38095F0000FDA
:1019300000F077802DE901494FEA11404FEA144643
:1019400021EA004800FB06FC24EA064708FB06F6ED
:1019500007FB08F800FB07F718EB06484CEB164CA2
:101960004FEA124B18EB07484FEA15464CEB17406D
:1019700022EA0B4E0BFB06FC25EA06470EFB06F699
:1019800007FB0EFE0BFB07F71EEB064E4CEB164C4F
:101990004FF000061EEB074E4CEB174B18EB0B08F5
:1019A00040F1000018EB0E0B58EB000840F100006E
:1019B0008F1A4FF000013CBFC943661B14BFB5EB43
:1019C000040C00213CBFC943F61B4FEA17444EEA02
:1019D0008E0E27EA04454FEA1C4704FB07622CEAF7
:1019E000074C05FB07F70CFB05F604FB0CFC16EB9C
:1019F000074642EB174216EB0C4642EB1C421BEB30
:101A0000060658EB0202414146EA9E0601D5BDE8B2
:101A10000189B619524141EB0101A3F10103BDE86F
:101A200001894FEA14454FEA114724EA054621EAA5
:101A3000074C05FB07F406FB07F70CFB06F105FB5B
:101A40000CFC11EB074144EB17444FEA124711EB32
:101A50000C4144EB1C4422EA074C05FB07F206FB51
:101A600007F70CFB06F605FB0CFC16EB074642EBF2
:101A7000174216EB0C4642EB1C456A1854F1000164
:101A800048BF7047B619524141EB0101A3F1010370
:101A9000704795F0000F37D04FEA11424FEA1447D4
:101AA00021EA024624EA074C02FB07F106FB07F78E
:101AB0000CFB06F402FB0CFC14EB074441EB174152
:101AC0004FEA154714EB0C4441EB1C4125EA074C47
:101AD00002FB07F506FB07F70CFB06F602FB0CFC06
:101AE00016EB074645EB174516EB0C4645EB1C423B
:101AF000121951F1000148BF7047B619524141EB2C
:101B00000101A3F1010370474FEA14454FEA114761
:101B100024EA054621EA074C05FB07F106FB07F717
:101B20000CFB06F24FF0000605FB0CFC12EB074223
:101B300041EB174112EB0C4251EB1C4148BF70477F
:101B4000921841EB0101A3F101037047FEE7000089
:101B5000014800F00EBA000034010020014800F0F6
:101B600008BA00005C010020014800F0C7BC00007A
:101B7000CC010020014800F0C1BC00002C02002074
:101B800001681823CAB2103AB2FBF3F2054B6FF3A7
:101B90000901032A9B5CC36500D9091D81650846BC
:101BA00070470000906A000810B5014600208B695C
:101BB0008A6A4FF0C07453B1B3F5005F15D072B1AB
:101BC000012A0CD0022A0AD0032A09D104E01AB152
:101BD000012A06D0022A03D1C96AC90100D5012011
:101BE00010BDC96AA142FAD010BD002AF7D0012A5F
:101BF000F2D0022AF3D0032AF3D010BD30B5046826
:101C0000256825F480252560046863608368402B7F
:101C1000036803D099600068C26030BD9A600068B4
:101C2000C16030BD704772B6FEE790F82020012AEF
:101C300007D0022A05D0416A41F480214162012087
:101C40007047006842690A43426100207047F0B55E
:101C500090F820500468A468012D05D0022D03D00F
:101C6000416A41F4802157E014F0406F01D1E50052
:101C70004FD5C4F301640125A5401D608D684FF464
:101C8000C0739DB1CE6835434E6845EAC605066807
:101C900003EB0417F5514FF4C275076805EB041503
:101CA0000E697E51097D012905D009E00E88CD68B5
:101CB00045EA4655EBE701684E5946F480764E51A9
:101CC0001179D579567941EA056195792D0445EA6E
:101CD000062529434FF4C676056806EB0416A9517C
:101CE0001178D57841EA0561957852782D0445EA56
:101CF000022211434FF4C475026805EB04155151DB
:101D0000006803EB0411425842F0010242500020E7
:101D1000F0BD416A41F4001141620120F0BD0000B4
:101D200010B590F82020012A07D0022A05D0416A78
:101D300041F480214162012010BD3B48D0F80022CF
:101D400042F00102C0F80022D0F8002222F47C52B6
:101D5000C0F80022D0F800224B6A42EA0322C0F801
:101D600000220A7D02F01F0301229A40D0F81C32A3
:101D70009343C0F81C32CB69B3B9D0F80C3293430B
:101D8000C0F80C328C894B6864F31F434C6900EB3C
:101D9000C404C4F840320C890B6864F31F434C69D7
:101DA00000EBC404C4F84432CB69012B16D1D0F83F
:101DB0000C321343C0F80C320C884B6864F31F4399
:101DC0004C6900EBC404C4F840320C89CB6864F35E
:101DD0001F434C6900EBC404C4F844328B69002BE8
:101DE000D0F804320ED01343C0F804320B69002B34
:101DF000D0F8143208D01343C0F81432096A01290C
:101E000004D008E09343EFE79343F5E7D0F81C12C2
:101E10001143C0F81C12D0F8001221F00101C0F8E3
:101E20000012002010BD0000006400407047000058
:101E30000246002092F82030012B01D0022B05D160
:101E4000106821B1D0F8100000F003007047C0689E
:101E5000FAE770B590F82040012C05D0022C03D091
:101E6000416A41F4802128E0046809B32469A40789
:101E700020D04FF4D874056804EB01142D5915F0E7
:101E80000405956005682D591AD0ED085560056860
:101E90002C5904F00204D4604FF4DA74056804EBA2
:101EA00001142E5906F00F06082E0CD308250DE05C
:101EB000E468DCE7416A41F400114162012070BD31
:101EC0006D0D1560E3E72D5905F00F0515610568E7
:101ED0002D59C5F30725956105682C59240C5461CB
:101EE0004FF4DC72046802EB0112A4581C70046801
:101EF000A458240A5C700468A458240C9C700468DC
:101F0000A258120EDA704FF4DE72046802EB01126E
:101F1000A4581C710468A458240A5C710468A4586D
:101F2000240C9C710468A258120EDA71006829B161
:101F3000016941F020010161002070BDC16841F0DC
:101F40002001C160F8E70246002092F82010012924
:101F500001D002290CD111688A68520100D50120F4
:101F60008A68120100D5401C8968C90000D5401C50
:101F700070472DE9F05F0546006800244669D0F8F7
:101F800004908768D0F80CB0D0F810A0D0F8188072
:101F9000F10748D0F90714D001218160B80703D5B3
:101FA000284600F05AFA0CE0780702D54FF4006496
:101FB00007E0380702D54FF4805402E0284600F0CD
:101FC0004BFAF80516D529684FF480708860B8057B
:101FD00003D5284600F043FA0CE0780502D544F416
:101FE000005407E0380502D544F4804402E0284656
:101FF00000F034FAF80316D529684FF48030886071
:10200000B80303D5284600F02CFA0CE0780302D57B
:1020100044F4004407E0380302D544F4803402E07D
:10202000284600F01DFA300707D55FEACB6004D5DB
:102030002968102044F40074C86070074FF0080746
:1020400007D55FEA0B7004D52868C760284600F002
:1020500089F9B00706D52868C068800702D02846ED
:1020600000F082F9700607D55FEACA6004D52968D6
:10207000102044F480640861B00607D55FEA0A7056
:1020800004D528680761284600F0B6F9F00606D5A1
:1020900028680069800702D0284600F0AEF9B00336
:1020A00008D55FEAC96005D5296810204860284630
:1020B00000F0A4F9F00307D55FEA097004D5286899
:1020C0004760284600F0CEF9300446D55FEA4970F3
:1020D00040D5F00504D55FEAC87001D044F0010492
:1020E000B00504D55FEA887001D544F0020470059C
:1020F00004D55FEA487001D544F00404300529D5C1
:1021000018F0700F26D008F07000402815D006DCBB
:10211000102809D020280AD0302816D10AE05028EB
:102120000ED0602811D10EE044F008040DE044F018
:1021300010040AE044F0200407E044F0400404E006
:1021400044F0800401E044F480742868816921F03F
:1021500070018161296804204860002C05D0686AFC
:10216000204368622846FFF761FEBDE8F09F70B526
:10217000040003D094F8200010B104E0012070BDE9
:10218000204600F081F82068016841F001010160FB
:1021900000F01EFC0546052604E000F019FC401B7B
:1021A0000A2811D820684068C007F6D02068016866
:1021B00021F00201016000F00BFC05460BE000F08D
:1021C00007FC401B0A2806D9606A40F400306062B0
:1021D00084F82060D2E7206840688007EFD4207E32
:1021E0000128206801683DD021F080010160607EF7
:1021F00001282068016838D021F040010160A07EEC
:1022000001282068016833D021F020010160E07EC0
:102210000128206801682ED041F010010160207F64
:1022200001282068016829D021F008010160607F41
:1022300001282068016824D021F004010160D4E95C
:1022400002010843D4E90412114308436168491E9E
:1022500008432168C86100206062012084F82000E2
:10226000002070BD41F08001C0E741F04001C5E7AA
:1022700041F02001CAE721F01001CFE741F0080149
:10228000D4E741F00401D9E7F0B587B00446142142
:102290006846FEF7C8F92E4B2E48DFF8B0E0196803
:1022A000D4F800C02B4A0225032609271030002449
:1022B000491CF44519D11960012907D1016841F081
:1022C00000710160006800F000700590106840F037
:1022D000010010601068694600F0010005904FF49D
:1022E000C050CDE900051C4828E0DFF870E0F44557
:1022F00029D1D0F800C04CF0806CC0F800C0D0F8F4
:1023000000C001290CF0806CCDF814C0196007D111
:10231000016841F000710160006800F000700590F4
:10232000106840F0020010601068694600F002007A
:1023300005904FF44050CDE90005094802AB83E811
:10234000D00000F04DFA07B0F0BD0000006400407E
:1023500010000020303802400000024000680040B9
:10236000000402407047000070B5214905468AB05C
:102370000868A84202D04968A94237D1A84201D0D2
:1023800001262DE000262BE06B4602AA00212846FC
:10239000FFF75FFD002829D1049808BB069808289C
:1023A0001ED10298B0F5007F1AD9B0F5027F17D878
:1023B000104A401EC0B2BDF8001002EBC61202EB7C
:1023C000001449BA2180BDF8020040BA6080BDF80F
:1023D000040040BAA08000F0FBFAA0600120207346
:1023E00000212846FFF724FD0028CDD10AB070BD9A
:1023F0009C00002074030020704770477047000065
:1024000070B5044690F82000012804D0606A40F4BA
:102410000020606218E0022084F820002068016833
:1024200021F00101016000F0D3FA05460EE000BF83
:1024300000F0CEFA401B0A2808D9606A40F4003048
:102440006062052084F82000012070BD206840688B
:10245000C007EDD1606270BD70477047704770472C
:102460007047704770472DE9F0410446876D00F0D2
:10247000AFFA064694F835000025022806D08020E1
:10248000606584F834500120BDE8F081206801685F
:1024900021F0160101602068416921F0800141614D
:1024A000206C08B9A06C20B12068016821F00801F7
:1024B00001602068016821F0010101600CE000F07A
:1024C00087FA801B052807D920206065032084F83F
:1024D000350084F83450D7E720680068C007EED193
:1024E00094F85C103F208840B860012084F83500E3
:1024F00084F834500020C7E7406D70472DE9F84359
:1025000004464FF00009CDF8009063484FF416518F
:10251000A56D0068B0FBF1F72E6894F85C100820F8
:1025200000FA01F131420FD021680A6852070BD539
:102530000A6822F004020A6094F85C108840A860DF
:10254000606D40F00100606594F85C104FF0010888
:1025500008FA01F0304208D021684969090604D51B
:10256000A860606D40F00200606594F85C10042083
:102570008840304208D021680968890704D5A860DE
:10258000606D40F00400606594F85C101020884095
:10259000304218D021680968090714D5A86020685E
:1025A0000168490304D50068000308D5A16C07E061
:1025B0000168C90503D4016821F008010160216C9C
:1025C00009B12046884794F85C10202088403042AA
:1025D00031D021680968C9062DD5A86094F8350066
:1025E00005282068016806D0490347D50068000324
:1025F0001DD4616C1CE021F0160101602068416966
:1026000021F080014161206C08B9A06C20B12068E4
:10261000016821F00801016094F85C103F208840B7
:10262000A86084F8358084F83490216D1FE0E16B58
:1026300009B120468847606D00282BD0606DC00727
:1026400014D0052084F835002068016821F00101CC
:1026500001600098401C0090B84203D820680068D0
:10266000C007F6D184F8358084F83490E16C0029F5
:1026700010D001B02046BDE8F04308470168C90505
:10268000D5D4016821F01001016084F8358084F808
:102690003490CCE7BDE8F883B00000202DE9F0418C
:1026A000044600F095F906465CB1022084F8350036
:1026B000002584F834502068016821F00101016090
:1026C0000DE00120BDE8F08100F082F9801B0528B3
:1026D00005D920206065032084F83500F2E72068E2
:1026E0000068C007F0D12268116820480140D4E991
:1026F00001031843D4E9033633431843636918438D
:10270000A3691843E3691843236A18430843616ABD
:10271000042903D1D4E90B1319430843106020683E
:102720004069666A20F0070130460E4301270428FD
:102730000CD1A06A0643E06A40B12046FFF734FAA4
:1027400020B14020606584F83570BAE720684661A2
:102750002046FFF715FA94F85C203F2191408160F4
:10276000656584F835700020ACE700003F8010F00C
:102770002DE9F0410446866D90F8340000250128CB
:102780000DD0012084F8340094F835700020012F1A
:1027900007D084F8340002252846BDE8F0810220E5
:1027A000FBE7022784F8357060652046FFF726FABC
:1027B00094F85C103F208840B0602068016841F0C8
:1027C00016010160206C20B12068016841F0080109
:1027D00001602068016841F001010160DCE7000050
:1027E0002DE9F84FDFF8BCA10022012503264FF0A8
:1027F0000F090AF1040BAAF1040E00BF0B6805FAD9
:1028000002F42340A34270D10F7907F00307012F90
:1028100001D0022F16D187684FEA420806FA08FC59
:1028200027EA0C07D1F80CC00CFA08FC4CEA070C9C
:10283000C0F808C04768A7430C79C4F3001494405B
:102840003C4344600C79E443A4070AD0C4684FEACF
:10285000420C06FA0CF7BC438F6807FA0CF72743C3
:10286000C7600C7904F00304022C12D1D40800EBE9
:10287000840CDCF820405707FF0E09FA07F824EA19
:102880000804D1F8108008FA07F848EA0408CCF8E0
:10289000208004684FEA420C06FA0CF7BC430F791B
:1028A00007F0030707FA0CF7274307604C6814F496
:1028B000403F70D03C4C276847F48047276024682D
:1028C00022F0030704F480440094384C07EB040C16
:1028D000DCF8084897074FEA177809FA08F7BC436D
:1028E000334FB84202D1002724E054E0314FB842C0
:1028F00001D101271EE0304FB84201D1022719E073
:102900002E4FB84201D1032714E02D4FB84201D118
:1029100004270FE02B4FB84201D105270AE02A4FC8
:10292000B84201D1062705E0284FB84201D1072758
:1029300000E0082707FA08F72743CCF80878DAF808
:1029400000405746D1F804C09C435FEACC2C00D528
:102950001C433C60DBF800405F46D1F804C09C4358
:102960005FEA8C2C00D51C433C60DEF800407746C3
:10297000D1F804C09C435FEA8C3C00D51C433C600A
:10298000084F083F3C68D1F804C09C435FEACC3C48
:1029900000D51C433C60521C102AFFF42FAFBDE849
:1029A000F88F0000083C01404438024000300140EC
:1029B000000002400004024000080240000C0240F7
:1029C000001002400014024000180240001C0240A7
:1029D0000148806870470000A40000200248816818
:1029E0000278114481607047A40000200B4810B5A4
:1029F000016841F400710160016841F48061016087
:102A0000016841F480710160032000F099F80F2003
:102A100000F006F800F04AF8002010BD003C02402B
:102A200030B505461C4887B00024016841F001011B
:102A30000160006806A900F00100009001A800F004
:102A40002BF900F059F915494000B0FBF1F1154898
:102A5000134A491E026040F2E732C0E90324C0E98C
:102A60000114846100F042FB040012D10D4800F013
:102A70006BFB04000DD1192000F034F8102D07D2A3
:102A800000222946192000F03BF80748056000E0C5
:102A9000012407B0204630BD4438024040420F00B8
:102AA000000001408C020020A80000200C4882B0E9
:102AB000016841F480410160006800F480400090AA
:102AC0000748001F016841F0805101600068002242
:102AD00000F0805000900F21901E02B000F010B85E
:102AE00044380240002809DB00F01F020121914018
:102AF0004009800000F1E020C0F80011704700009C
:102B0000F0B40E4B1B680C46C3F30223C3F1070558
:102B1000042D00D90425191D072901D2002300E046
:102B2000DB1E012606FA05F1491E214099409E4010
:102B3000761E16403143F0BC01F0D1BB0CED00E035
:102B4000064900F0070208684FF6FF03184040EA04
:102B50000220034A10430860704700000CED00E0BB
:102B60000000FA052DE9F0470E46050065D0DFF8B4
:102B70001481D8F80000F7B200F00700B04207D285
:102B800088F80070D8F8000000F00700B04254D177
:102B900028683D4C810712D5400703D5206840F4D2
:102BA000E05020602878000703D5206840F460409A
:102BB00020602068A96820F0F00008432060287891
:102BC000C0072DD0304968680839012812D0022882
:102BD00013D0032811D00968890700292DDA21684C
:102BE00021F0030101432160FFF7F2FE814641F22B
:102BF000883A0EE009688903EFE709688901ECE784
:102C0000FFF7E6FEA0EB0901514502D90320BDE81C
:102C1000F0872068696800F00C00B0EB810FEFD1FD
:102C2000D8F80010404601F00701B14207D90770FB
:102C3000006800F00700B04201D00120E7E72878E3
:102C4000400705D52068E96820F4E050084320607B
:102C50002878000706D52068296920F4604040EAFA
:102C6000C100206000F058F82168084AC1F3031140
:102C7000515CC8400649086006480068FFF7D0FE6E
:102C80000020C4E7003C024008380240986A00086F
:102C9000B0000020A80000200F2202600C4A136838
:102CA00003F003034360136803F0F00383601368C9
:102CB00003F4E053C36012684FF4E05303EAD20216
:102CC00002610448006800F00700086070470000D7
:102CD00008380240003C0240044805490068096881
:102CE000044AC1F38221515CC8407047B000002003
:102CF00008380240A86A00080448054900680968C5
:102D0000044AC1F34231515CC8407047B000002012
:102D100008380240A86A0008154810B5006810F08D
:102D20000C02144813D01449042A0FD0082A0ED1DB
:102D30000F4C241F2268236802F03F025B0207D574
:102D40002068C0F38810A0FB010106E0084610BD12
:102D50002168C1F38811A1FB00010023FDF712FBDC
:102D60002168C1F30141491C4900B0FBF1F010BDDD
:102D7000083802400024F40040787D012DE9F84F26
:102D800004006ED02078DFF84C93C007A9F1040549
:102D90004AD009F104000168C1F38101012908D07A
:102DA0000068C0F3810002280AD1D9F8000040026F
:102DB00006D52868800337D560680028E1D033E065
:102DC0006068B0F5803F10D0B0F5A02F286810D013
:102DD00020F480302860286820F480202860606813
:102DE000A8B1FFF7F5FD06460DE0286840F48030F5
:102DF000F4E740F480202860F7E700BFFFF7E8FD24
:102E0000801B642873D828688003F7D50CE0FFF78F
:102E1000DFFD064605E000BFFFF7DAFD801B6428F2
:102E2000F0D828688003F7D42078DFF8AC828007D8
:102E30004FF0000A3ED5A748001D016811F00C0FA5
:102E400008D00068C0F3810002280BD1D9F8000037
:102E5000400207D42868800716D5E068012800D111
:102E600012E033E1E068B8B10120C8F80000FFF7D4
:102E7000AFFD064605E000BFFFF7AAFD801B022854
:102E8000C0D828688007F7D52868216920F0F800A5
:102E900040EAC10028600DE0C8F800A0FFF798FDE7
:102EA000064604E0FFF794FD801B02281FD828681F
:102EB0008007F7D42078000722D5864F87486169BC
:102EC000703771B101210160FFF782FD064604E011
:102ED000FFF77EFD801B022809D838688007F7D5E8
:102EE0000EE0C0F800A0FFF773FD064605E082E0A3
:102EF000FFF76EFD801B02287DD838688007F7D465
:102F00002078400768D5DFF8CCB100270BF13C0BE7
:102F1000DBF80000C0000BD4DBF8001041F080515A
:102F2000CBF80010DBF80000012700F08050009083
:102F30006B4E3068C00510D4306840F4807030604B
:102F4000FFF746FD009005E0FFF742FD0099401AAB
:102F5000022850D83068C005F6D55E4EA0686C36A1
:102F600001280FD00528306810D020F00100306013
:102F7000306820F004003060A068B8B1FFF728FD89
:102F800000900FE0306840F00100F4E740F00400EA
:102F90003060F7E7FFF71CFD0099411A41F28830D5
:102FA000814266D830688007F4D50EE0FFF710FD47
:102FB000009007E0FFF70CFD0099411A41F28830BC
:102FC000814256D830688007F4D42FB1DBF8001066
:102FD00021F08051CBF80010A069C8B33D49091D0C
:102FE0000968C1F3810102294AD00228504607D05E
:102FF000C8F8600000E03CE0FFF7EAFC04463BE074
:103000004746C8F86000FFF7E3FC064605E000BF4E
:10301000FFF7DEFC801B02282BD828688001F7D43C
:10302000D4E907010843A16A2E4A490802EB01418D
:10303000626A41EA8211084394F82C1040EA016167
:10304000C9F8001001203866FFF7C2FC044606E00C
:103050003EE000BFFFF7BCFC001B022809D828682F
:103060008001F7D534E000BFFFF7B2FC001B022857
:1030700002D90320BDE8F88F28688001F4D427E046
:103080000128F7D0D9F80000E26900F480019142EC
:103090001CD1226A00F03F01914217D147F6C0715E
:1030A000626A0140B1EB821F10D1A26A4FF0FF3378
:1030B00000F4403103EB5202B1EB024F06D194F819
:1030C0002C1000F07060B0EB016F01D00120D1E74F
:1030D0000020CFE70438024000004742800E4742FC
:1030E000007000400000FFFF7047704710B50400FB
:1030F00003D094F83D0010B107E0012010BD00207E
:1031000084F83C00204600F01EF8022084F83D00C0
:10311000211D206800F0D2FE012084F8460084F8CA
:103120003E0084F83F0084F8400084F8410084F8B1
:10313000420084F8430084F8440084F8450084F891
:103140003D00002010BD704790F83D10012901D0CE
:1031500001207047022180F83D100168CA6842F0E2
:103160000102CA6000681149884214D0B0F1804F52
:1031700011D00F4988420ED00E4988420BD00E491B
:10318000884208D00D49884205D00D49884202D0B6
:103190000C49884204D1816801F00701062903D057
:1031A000016841F00101016000207047000001400A
:1031B0000004004000080040000C004000040140F2
:1031C000004001400018004070472DE9F0410446DE
:1031D0000068C66805694FF00007A90713D5B10755
:1031E00011D5F91E016101202077206880698007D0
:1031F000204602D0FFF7E8FF04E000F07EF820460A
:1032000000F07CF82777680716D5700714D5216879
:103210006FF004000861022020772068806910F4B4
:10322000407F204602D0FFF7CFFF04E000F065F8B2
:10323000204600F063F82777280715D5300713D507
:1032400021686FF008000861042020772068C069B9
:103250008007204602D0FFF7B7FF04E000F04DF8EA
:10326000204600F04BF82777E80616D5F00614D56F
:1032700021686FF010000861082020772068C0697D
:1032800010F4407F204602D0FFF79EFF04E000F0DC
:1032900034F8204600F032F82777E80708D0F00726
:1032A00006D021686FF001000861204600F028F880
:1032B000280608D5300606D521686FF08000086121
:1032C0002046FFF711FF680608D5700606D521686D
:1032D0006FF040000861204600F01CF8A8060AD5EF
:1032E000B00608D521686FF0200008612046BDE8CF
:1032F000F041FFF7FABEBDE8F0817047704700006B
:1033000000680349884201D1FFF768BB704700009D
:1033100000000140704738B5044690F8420020286C
:1033200001D0022038BD51B14AB1012020630020F4
:103330006063204600F082FF216B012901D001204B
:1033400038BD21680A684968009121680C3151E84C
:10335000002F42F0100241E80023002BF5D138BDC8
:1033600000F0E4BA70B5044620680C3050E8001F45
:1033700021F4907140E80012002AF5D12068143041
:1033800050E8001F21F0010140E80012002AF5D1A9
:10339000206B012809D120680C3050E8001F21F073
:1033A000100140E80012002AF5D1206840694FF072
:1033B0000005400615D52068143050E8001F21F0A4
:1033C000400140E80012002AF5D1E06B48B10565E4
:1033D000E06BFFF748F820B1E06BFFF78DF820288D
:1033E00006D0E585202084F842002563002070BDCA
:1033F00010206064032070BD00F086BA70B5040030
:1034000004D094F84100002510B106E0012070BD01
:1034100084F84050204600F023F8242084F841002E
:103420002068C16821F40051C160204600F080FE90
:103430002068016921F4904101612068416921F00F
:103440002A0141612068C16841F40051C16065648E
:10345000202084F8410084F842006563002070BD9C
:103460002DE9F04186B0064614216846FDF7DBF8E9
:103470002949306888424BD128480024016841F42A
:1034800000210160006800F40020059023481038F6
:10349000016841F0010101600068022100F00100B3
:1034A000059003208DE813000390082004906946DE
:1034B0001B48FFF795F91C4D1A484FF480684705E3
:1034C0002860C5E90174C5E903486C61AC61EC6131
:1034D0002C6228466C62FFF7E1F808B1FEF7A3FB07
:1034E000F563AE630F48114D3030E5E80207402028
:1034F000A5E811010D4845F81449AC61EC612C6256
:103500006C62FFF7CBF808B1FEF78DFBB563AE63D5
:1035100006B0BDE8F0810000004C00404038024099
:103520000000024040600240CC0100202C0200203C
:103530007047704770B5044690F84100202801D0CC
:10354000022070BD01B3FAB12162A284E28400209E
:103550006064212384F84130A56B144BEB63A56BA9
:10356000134B2B64A56B134BEB64A36B186520689E
:103570001346A56B021D2846FFF7FAF830B110205C
:103580006064202084F84100012070BD21686FF044
:10359000400008602068143050E8001F41F08001AE
:1035A00040E80012002AF5D1002070BD7B400008E1
:1035B000BD4000088D3F000803498A68904201D150
:1035C0000020087070470000140000207047FEE7DC
:1035D000054B10B59A6000225A7000F025FBBDE83B
:1035E000104000F0BBBF0000140000202DED068B42
:1035F0008AB04FF0000A5746CDF810A09FEDB59A5B
:103600009FEDB58ADFEDB59A9FEDB5AAB54CD346CF
:10361000A4F12409CDF808A0FFF7DAF9019001F030
:103620000FFB0221012000F0EDFA064603210120E4
:1036300000F0E8FA00900521022000F0E3FA0546C8
:103640003EB1307B28B1009818B1007B08B1012051
:1036500000E000208046607BB8B184F80DB089F8A6
:1036600002B089F804B001F08DFF9E48103001F0DF
:10367000DBF99C482C3001F0D7F99A48483001F02A
:10368000D3F99949002781F810B0207B80B184F8E4
:103690000CB0012289F8022089F803B089F804B03F
:1036A000C9F80CB09049DDF804A0002781F810B0EB
:1036B00099F80210484600297DD0B8F1000F01D1D9
:1036C000DDF804A00079D8B9D6B1307BC0B1B6F925
:1036D0000200F0EE491A00EE100A8248B6EE001A17
:1036E000B8EEC00A103089ED040A94ED000AD9ED55
:1036F000040A01F0A5F902460221012000F01CFB9A
:1037000099F80400F8B90098E8B1007BD8B10098A6
:10371000F0EE491AB6EE001AB0F9020000EE100AF7
:103720007048B8EEC00A2C3089ED050A94ED000A05
:10373000D9ED050AB1EE400A01F082F902460321F3
:10374000012000F0F9FA002D68D0287B002865D010
:103750002E886FB900200290049689ED068A89EDC3
:10376000078A0127019999ED060A5F4800F066F97A
:103770000498301AB0F5805F01DDA0F5005010F517
:10378000805F01DA00F500500299084400EE100A4B
:10379000B8EEC00ADFED550A20EE200ADFED540A2C
:1037A0000496029080EE201A4E4689ED061A99F88A
:1037B000040090B300E083E096ED080AD6ED060A17
:1037C00086ED070A70EE608A9FED4A0A28EE800AAD
:1037D000DFED490A00F0DCFEB5F90200F0EE691AEF
:1037E00000EE900A3F48B0EE4A1AF8EEE00A483080
:1037F00001F026F902460521022000F09DFA18EE9C
:10380000900A3E4988425DDA18EE900A3C498842A7
:1038100058D2584686F804B051E000E052E0B8F1C2
:10382000000F07D00198A0EB0A00B0F5FA7F01D392
:10383000012000E0002000906368A268019996EDE5
:10384000060A294800F03EF9274890ED000A86ED67
:10385000070AA16896ED060A00F0FCF8B5F9020027
:10386000F0EE691A00EE900A1E48B0EE4A1AF8EE21
:10387000E00A483001F0E4F802460521022000F099
:103880005BFAD6ED060A9FED1F0A80EE801ABCEEA9
:10389000C10A10EE100AF060B8F1000F12D00198C2
:1038A000A0EB0A00B0F5FA7F0CD30F48616880687E
:1038B000884207D36068F168884203D85846B070E0
:1038C00001F060FE019800F0EFF9012000F098FF90
:1038D000A2E6000000008046000000000020CB456A
:1038E0003333333F38000020600300200000B4432E
:1038F000000090480000964300408345CDCC4C3FEB
:10390000CDCC4CBF00002042074910B58A689042D8
:1039100008D100224A700A70FFF724FDBDE810406C
:1039200000F01CBE10BD000014000020F8B50D46CC
:103930001249896888421FD1402D1DD80024104E9D
:10394000104F0AE0385DADF8000000231A466946C2
:10395000306800F0EFFF641CA4B2AC42F2D30A203E
:10396000ADF8000000231A466946306800F0E2FF17
:10397000BDE8F84000F0F2BDF8BD000014000020E2
:103980000C000020D4020020294D88B0A5F12404A9
:1039900095ED000A8DED000A686800EE100AB8EE99
:1039A000400A8DED010AA86800EE100AB8EE400A40
:1039B0008DED020A207910B1B0EE000A09E0E0783E
:1039C00010B1BFEE000A04E0A07800EE100AB8EED5
:1039D000400A8DED030AE06800EE100AB8EE400AD6
:1039E0008DED040A94ED040A8DED050A94ED070AA5
:1039F0008DED060A94ED060A8DED070A207898B938
:103A0000202269460B48FCF7B2FD0A480A494038B3
:103A1000096801660120207024220649A068FFF78A
:103A200089FD08B100202070142000F0E9FEAFE706
:103A300038000020140300208C6A0008002808D0F9
:103A400080ED000A80ED010A0022C0E90221012177
:103A50000174704728B1D0ED000A70EEC00A19B1A8
:103A600003E09FED120A7047012100EE101A9FED4E
:103A7000101ADFED101AB8EE400A20EE011A81EE9E
:103A8000810A9FED0D1A00EE810ADFED0C0AB4EEFB
:103A9000E00AF1EE10FA06DCDFED090AB4EEE00A06
:103AA000F1EE10FADFD2B0EE600A704700000000BD
:103AB0000000B44380CBA44C000070420000AF452E
:103AC0000000AFC530B4DFED4B0A029C00287CD06B
:103AD00002B90122057CE5B3DCB3C468C1600C1BEC
:103AE0008168994271D201EE104AF5EEC00AB8EE33
:103AF000411A60EE811A01EE102AB8EE411A81EEE9
:103B0000812A90ED001A72EE011AF1EE10FAC0ED62
:103B1000001A16DD02EE103A90ED011AF8EE422A74
:103B2000B0EE412A02EEA02AB4EEE12AF1EE10FA3C
:103B300007D201EE903AF8EE611A01EEA01A80ED7C
:103B4000001AF5EEC00AF1EE10FA1AD290ED011A41
:103B500000E027E001EE903AB8EE612AF0EE411A5B
:103B600042EE201A90ED002AF4EEC21AF1EE10FA9D
:103B700007DD01EE903AF8EE611A01EEA01A80ED31
:103B8000001A90ED001A1C4A31EE401A11EE101A7C
:103B900091420ADC11EE101A184A914205D890EDB4
:103BA000000A04E030BCFFF749BF80ED000A90ED49
:103BB000011A30EE411A81EE200AB5EEC00AF1EE8C
:103BC00010FA01D29FED0E0A00E010E000EE903AEC
:103BD000F8EE600AB4EEE00AF1EE10FA03DD00EE52
:103BE000103AB8EE400ABCEEC00A80ED020A30BCC2
:103BF00070470000000020420000A0420000A0C268
:103C000000000000421E022A02D209B1082901D98F
:103C100000207047034A02EBC01000EB01109038FF
:103C2000704700007403002070B58AB00C4605464A
:103C300028216846FCF7F7FC18484FF48071C0E96A
:103C400000541748FCF7EFFC20211648FCF7C9FC8C
:103C500000220120CDE906200890009204920E2651
:103C60000192029203926946284609960592FEF750
:103C700057F8694620460596FEF752F82846FEF7A3
:103C8000BFFB2046FEF7BCFB02212846FDF7CDFF17
:103C900002212046FDF7C9FF0AB070BD9C0000203C
:103CA00074030020740400202DE9FF47DFF88080B2
:103CB000824600246D4602AEA8F58079002008EB0C
:103CC000041100BF31F8102025F8102001EB40024C
:103CD000128926F81020401CC0B20428F2D3154FD8
:103CE0006A464FF4007157F8240001F021FC57F8A0
:103CF000240002AA40F2FF1101F01AFC0020034642
:103D000009EBC41202EB00110F7B37B1D1F808C0E8
:103D1000AAEB0C07642F00D90B73401CC0B2082813
:103D2000F0D3641CE4B2022CC8D3BDE8FF870000C6
:103D3000740400209C000020431E012B0AD8002997
:103D400008D0082906D8044B03EB001000EB410013
:103D500020F8122C70470000740400200F4810B5A2
:103D60000D4901600321416000214FF08072C0E9DC
:103D700002124FF4102202614FF4001242610176E8
:103D800041768176C17601774177FEF7F0F9002818
:103D900001D072B6FEE710BD00640040340100207F
:103DA0000F4810B50D4901600321416000214FF01B
:103DB0008072C0E902124FF4102202614FF4001227
:103DC0004261017641768176C17601774177FEF7CF
:103DD000CEF9002801D072B6FEE710BD00680040A1
:103DE0005C010020FEE7FEE7012000F009FDFBE793
:103DF00010B54FF0E020006902F0A6F9012803D0C9
:103E0000BDE8104001F066BE10BD000030B593B0B3
:103E100030216846FCF707FC14210CA8FCF703FCD2
:103E20001D480025016841F080510160006800F0E4
:103E3000805011901948016841F480410160006888
:103E4000022400F48040119001200390102004907F
:103E5000009406940820CDE90750A820CDE9090474
:103E600004200B906846FEF789FF08B172B6FEE7A2
:103E70000CA90F2081E831004FF4A0500F904FF4AF
:103E80008050109005210CA8FEF76CFE002801D090
:103E900072B6FEE713B030BD4038024000700040FB
:103EA0000248016841F470010160704788ED00E04C
:103EB0000148FFF78AB900008C020020F0B50268C3
:103EC000274B284D284E294F294C4FF0804C9842C3
:103ED00009D0604507D0A84205D0B04203D0B8420F
:103EE00001D0A04204D122F0700E4A6842EA0E02CC
:103EF00098421BD0604519D0A84217D0B04215D0C7
:103F0000B84213D0A04211D01A4DA8420ED01A4D7B
:103F1000A8420BD0194DA84208D0194DA84205D08F
:103F2000184DA84202D0184DA84203D122F4407582
:103F3000CA682A434D6922F080022A438D68C5620F
:103F40000D688562984201D0A04201D109690163E0
:103F5000016841F004010160012141610260F0BD8E
:103F6000000001400004004000080040000C004038
:103F7000000401400040014000440140004801406D
:103F800000180040001C00400020004070B5846B09
:103F90002068406994F84110C0F3C0100025212921
:103FA00004D118B1E584204600F0B4F820684069D7
:103FB00094F84210C0F38010222904D118B1E5858D
:103FC000204600F080F8606C40F0100060642046ED
:103FD000FFF712FA70BD10B50146806B09680968D9
:103FE0004FF00002C9052ED4C28501680C3151E89A
:103FF000003F23F4807341E80034002CF5D10168C0
:10400000143151E8003F23F0010341E80034002C53
:10401000F5D10168143151E8003F23F0400341E835
:104020000034002CF5D1202180F84210016B0129C9
:1040300009D101680C3151E8003F23F0100341E839
:104040000034002CF5D14263016B012902D0FFF747
:104050006FFA10BD818DFFF783F910BD10B5806B2D
:1040600001214163016B012902D0FFF762FA10BD03
:10407000818D4908FFF774F910BD10B50146806BBA
:1040800009680968C90516D40021C1840168143182
:1040900051E8002F22F0800241E80023002BF5D1E7
:1040A00001680C3151E8002F42F0400241E8002342
:1040B000002BF5D110BDFFF77FFA10BD10B5806B56
:1040C000FFF784FA10BD01680C3151E8002F22F48B
:1040D000907241E80023002BF5D10168143151E8BA
:1040E000002F22F0010241E80023002BF5D1016BE3
:1040F000012909D101680C3151E8002F22F010028A
:1041000041E80023002BF5D1202180F84210002146
:104110000163704701680C3151E8002F22F0C002A2
:1041200041E80023002BF5D1202180F84110704791
:1041300070B5044600680169E26821F440511143FA
:1041400001612169A068E26908436169114308437C
:104150002168CA6849F20C639A430243CA60206826
:104160004169A26921F440711143416131492068DC
:10417000884202D03049884202D1FEF7BDFD01E0FD
:10418000FEF7AAFDE2690023192164253226B2F563
:10419000004F626828D0A0FB0101930F9200FCF74A
:1041A000F1F80146B0FBF5F06FF01802504301EB57
:1041B000800006EB0010B0FBF5F000F0F002B1FB60
:1041C000F5F002EB0012B1FBF5F06FF01803584365
:1041D00001EB800006EB0010B0FBF5F000F00F00E3
:1041E00021681044886070BDA0FB010192185B41FA
:1041F000FCF7C8F80146B0FBF5F00201B1FBF5F0A1
:104200006FF01803584301EB800006EBC000B0FBD1
:10421000F5F000F0F80002EB4002B1FBF5F0584376
:1042200001EB800006EBC000B0FBF5F000F00700EA
:10423000D6E70000001001400014014038B581624B
:1042400004468285002013466064222284F84220BE
:10425000E56B1F4AEA63E56B1E4A2A64E56B1E4A5A
:10426000EA64E26B10650A462168E06B091DFEF7FF
:104270007FFA30B110206064202084F842000120D1
:1042800038BD2068016840680090206948B1206806
:104290000C3050E8001F41F4807140E80012002A01
:1042A000F5D12068143050E8001F41F0010140E8CA
:1042B0000012002AF5D12068143050E8001F41F0A8
:1042C000400140E80012002AF5D1002038BD00006E
:1042D000D73F00085D4000088D3F0008FEE7090752
:1042E000090E002804DB00F1E02080F8001470477C
:1042F00000F00F0000F1E02080F8141D704700006E
:1043000030B52DED048B81B0B0EE408AF0EE608ABE
:104310006A4651EC180B00F063F900989FED329B50
:104320007E300090002821DC53EC192B51EC180B47
:1043300002F032F91AD0002140F608004FF00000D8
:10434000044651EC180B02F0E1F808EE100A40F6B2
:10435000080004EA00014FF00000B5EEC08AF1EE5B
:1043600010FA04BF0220FCF7C3FA2DE00098FF28E2
:1043700030DB002108464FF0000000F4400553EC0C
:10438000192B51EC180B02F07DFA8CBF002401248C
:104390000220FCF7ADFA9FED168A4DB1002C0CBF40
:1043A0004FF400004FF48000A84218BF9FED118A1F
:1043B000042108464FF00000002C01BFB1EE480A6E
:1043C00001B0BDEC048B30BDB0EE480A01B0BDECCD
:1043D000048B30BD51EC180B02F098F801B000EEE0
:1043E000100ABDEC048B30BD00000000000000008E
:1043F0000000807FFFFF7F7F30B540F2FF742DED1E
:10440000048BF0EE608A18EE901A85B0B0EE408A08
:104410009FED2B9B05468DED008B34EA115147D063
:1044200053EC192B51EC180B02F0B6F840D02A4689
:1044300051EC180B02F09BFA41EC180B18EE900AA5
:104440008DED008B34EA10501CD053EC192B51EC3D
:10445000180B02F0A1F82BD10220FCF749FA00F06A
:1044600053F810EE901A18EE900A8DED020B8DEDB8
:10447000008B61F31E0003909DED020B05B0BDECB7
:10448000048B30BD0220FCF733FA00F02DF810EE5B
:10449000901A18EE900A8DED020B8DED008B61F3F2
:1044A0001E0003909DED020B05B0BDEC048B30BDEA
:1044B00005B0B0EE480AF0EE680ABDEC048B30BDE2
:1044C000000000000000000008B59FED060A0A4643
:1044D00001468DED000A6846FCF76BF99DED000A78
:1044E00008BD0000000000009FED050B10B553EC67
:1044F000102B51EC100B02F0C7F841EC100B10BD63
:1045000000000000000000709FED050B10B553EC9B
:10451000102B51EC100B02F0B7F841EC100B10BD52
:10452000000000000000001010B5044691ED000BE3
:10453000FFF7E6FE84ED000A10BD10B5044690EDCD
:10454000000B0846FFF758FF84ED000B10BD303814
:104550000A2801D2012070470020704710B50A4C8C
:10456000A06800280ED040220849FEF7D4FE00289B
:1045700008D1A068C06B002804D00068016821F051
:104580000801016010BD000014000020D4020020CA
:10459000B4EEE00AF1EE10FA06DCF1EE600AB4EED9
:1045A000E00AF1EE10FA01D2B0EE600A70470000A6
:1045B00070B50D46014614460848FCF75BF858B143
:1045C00029460648FCF756F830B121460348FCF767
:1045D00051F808B1002070BD012070BD38030020E3
:1045E00010B582B01446CDE900010023009A236083
:1045F000194B21F0004098422ADA024328D0B0F546
:10460000801FA8BF226810DA9FED150B53EC102B0A
:104610009DED000B51EC100B02F036F8CDE90001D6
:104620006FF0350221F0004022600F4B6FF31E51F6
:1046300003EB20501044206041F0FF5040F0005048
:1046400001909DED000B00BF02B051EC100B10BDAE
:104650009DED000BF8E700000000F07F0000000077
:10466000000000000000504302FCFFFFFEF7BEFF09
:1046700008B5FEF7BBF9FFF7C9FB40480024016805
:1046800041F080010160016801F080010091016842
:1046900041F001010160016801F001010091016830
:1046A00041F002010160016801F00201009101681E
:1046B00041F4001101600068002200F40010009035
:1046C00005210D20FEF71CFA0D20FEF70BFA002243
:1046D00005210F20FEF714FA0F20FEF703FA2948F0
:1046E000274901604FF4E131C0E901140C21C46095
:1046F000C0E904418461C461FEF780FE08B172B66E
:10470000FEE7FFF72BFBFFF74BFB1E4AA2F1280148
:10471000A1F12800FEF75CFF002205211420FEF71E
:10472000EFF91420FEF7DEF9002205214020FEF704
:10473000E7F94020FEF7D6F900F070F8124A02219E
:10474000102000F0CBF8114C0F4A0021E0606C3AC9
:104750000F4800F023F90C4A2060483A00210D4828
:1047600000F01CF9084A6060243A00210A4800F071
:1047700015F9A06000F064F8FEE700003038024050
:10478000004C004084010020746A000800000020F2
:10479000E93D00086D460008DD59000830B51649AE
:1047A000002003464978154C01E0401CC0B2884205
:1047B00007D2225C202AF8D0092AF6D001E0491E4F
:1047C000C9B2814213D9621812F8012C202AF6D0FE
:1047D000092AF4D00BE0225C401CA2F16105C0B2B2
:1047E000192D01D8203AD2B2E2545B1CDBB28842C8
:1047F000F1D30020E05430BD140000203803002025
:1048000010B5EFF3058111B16FF0050403E000244A
:1048100008B100F0FDFF204610BD0000EFF3058059
:1048200010B16FF0050070470448016811B14FF0F6
:10483000FF30704701210160002070470401002013
:1048400010B5EFF3058010B16FF0050010BD0848FA
:104850000168012902D04FF0FF3010BD054A002148
:1048600082F8141D0221016001F03AF8002010BD09
:10487000040100200BE000E0F8B51D466FF00302D4
:104880006FF002064FF00004EFF30583A3B1F0B11F
:10489000E9B1E5B9002200926A4601F075FB0128F2
:1048A00017D10098B0B10C494FF080500860BFF3A9
:1048B0004F8FBFF36F8F0DE048B141B12A4601F031
:1048C000C7FA012806D025B16FF0010402E01446B2
:1048D00000E034462046F8BD04ED00E0F8B514468B
:1048E0004FF00005EFF3058212BB08B301B3A4B18A
:1048F000D4E9023263B1502A1AD32269C2B167697E
:1049000000FB01F6B74213D3009501F01AF907E056
:1049100072B9226962B9626952B9002201F0F0F8F5
:10492000050005D00CB1216800E0002100F03AFF3D
:104930002846F8BDF8B51D466FF003026FF0020679
:104940004FF00004EFF30583ABB100B3F9B1F5B953
:104950000022134600926A4601F01AFA012818D183
:104960000098B8B10C494FF080500860BFF34F8FEA
:10497000BFF36F8F0EE050B149B100232A4601F01A
:1049800057F9012806D025B16FF0010402E0144662
:1049900000E034462046F8BD04ED00E02DE9FF417B
:1049A0004FEA01034FF00005EFF30581039549BB82
:1049B00040B38027182100244AB3166806B1344654
:1049C00096691EB13146761E382E02D21679F60748
:1049D00003D0002004B0BDE8F081566906B1B708E5
:1049E000D2F808C0BCF1000F0DD0D5685C2D18D3EB
:1049F00012693AB136B18DE806103A46214601F007
:104A000078FB03900DE0D6685EB912694AB903AA33
:104A1000CDE90012BAB2214601F03EFB012800D0D8
:104A200003950398D6E700009FED040A002180ED6E
:104A3000030A80ED040A01767047000000000000C0
:104A400010B504462DED028BF0EE618A007EB0EECB
:104A5000602A98B3D4ED050A72EE601A41EE210A7D
:104A6000C4ED050A30EE608AD4ED010A94ED030A24
:104A70009FED161A60EE880A00EE810AF0EE680AD1
:104A8000FFF786FD84ED030AD4ED000A94ED041AC5
:104A900000EE880A38EE411AD4ED020A84ED048A49
:104AA00000EE810AF0EE680AFFF772FDBDEEC00A63
:104AB000BDEC028B10EE100A00B210BDFFE784EDD2
:104AC000052A01202076F0EE420ACBE76F12833AE6
:104AD000F8B5FFF763FE3C4C002500E0641C20782D
:104AE000A0B13D2805D03A2803D0202801D00928BC
:104AF000F4D104F8015B00E0641C20783D28FBD071
:104B00003A28F9D02028F7D00928F5D02FA230A1D3
:104B100030A0FFF74DFD314E012708B137734FE04C
:104B20002FA230A131A0FFF743FD08B1777347E012
:104B300030A233A133A0FFF73BFDA8B16946204660
:104B4000FFF7C2FC207820B30098007808BBB5EED0
:104B5000C00AF1EE10FA33DB10EE100A2B4988423E
:104B60002EDC86ED000A2BE029A22BA12CA0FFF75A
:104B70001FFD78B10A2269462046FBF77AFC2178AE
:104B800039B10099097821B918B1B0F57A7F17D8F1
:104B9000706015E024A225A126A0FFF709FD78B1D9
:104BA0000A2269462046FBF764FC217841B100994E
:104BB000097829B920B142F21071884200D8B0605A
:104BC000064824384570F8BD380300204F4E0000D9
:104BD00052554E00535441525400000038000020FA
:104BE0004F46460048414C540000000053544F507B
:104BF00000000000464C59574845454C0000000055
:104C000052504D00535045454400000000A00C4652
:104C100053484F545300000042554C4C455400003B
:104C2000434F554E540000004741500050455249F3
:104C30004F440000494E54455256414C000000007C
:104C4000F8B5114E0027114C114D13E0BDF80000CE
:104C5000C0B20D2808D00A2806D06178272908D2CA
:104C60007054491C617005E0607818B1FFF730FF9F
:104C700000E0677000231A4669462868FFF7FCFDCC
:104C80000028E3D0F8BD0000380300201400002005
:104C90000C0000202DE9F041134C0F460546E66854
:104CA0002068001D00F080FC681C07D137B1216826
:104CB000BDE8F0410D48091D00F0C6BC2068354430
:104CC000B5424560216805D2A06BBDE8F041091DE1
:104CD00000F0A2BC606B091D00F09EFCA06A85423A
:104CE00000D2A562BDE8F081B40000208409002054
:104CF0002DE9F041054600F0B3FC2D4CA068401CA6
:104D0000A06020682B4F10B1606930B32BE02560A4
:104D1000A068012827D1002606EB860007EB80005B
:104D200000F06CFC761C382EF6D3234800F066FCAD
:104D30002148143000F062FC1F48283000F05EFC6F
:104D40001D483C3000F05AFC1B48503000F056FC27
:104D5000194860631430A06305E02068E96AC06AFE
:104D6000884200D82560606A401C60626864E86A16
:104D70002169884200D9206100EB800007EB8000A8
:104D8000291D00F061FC00F08BFC606900280CD04C
:104D90002068E96AC06A884207D208494FF080500B
:104DA0000860BFF34F8FBFF36F8FBDE8F081000045
:104DB000B4000020D40400203409002004ED00E0F9
:104DC00038B500F04DFC104C2068C8B90F4800F011
:104DD00015FC0E48143000F011FC0C48E060143053
:104DE00020610A4B0020F03B009003F1500210219B
:104DF0000A2000F0A6FE206010B105A100F0D2FC50
:104E0000BDE8384000F04CBCF0000020880A0020CB
:104E1000546D72510000000030B4026C0B46002A41
:104E20000BD0C1681144C1608468A14201D30168FC
:104E3000C16030BC1846FBF755BB30BC70472DE94C
:104E4000F041856B174604460026026C82B1C7B15B
:104E5000E068FBF747FBE168206C091AE160226813
:104E6000914202D2A168081AE060022F16D017E022
:104E70002068A8B9A06801F0DFF906460020A0600C
:104E80000EE06068FBF72EFB216C606808446060F0
:104E9000A168884204D32068606001E005B16D1EFE
:104EA0006D1CA5633046BDE8F08110B5044690F84E
:104EB000590058B101280CD002280FD0502080F39F
:104EC0001188BFF34F8FBFF36F8FFEE7206B00F0A9
:104ED000FBFB2046BDE8104000F0F6BB10BD000013
:104EE00010484FF47051420706D0C01D0D4920F004
:104EF0000700411AC1F570510B4A00230144C2E971
:104F000000030839183A21F0070111604B600B606B
:104F10000B1AC0E9001393604FF0004053605061DA
:104F2000704700006811002020010020144E154C2D
:104F3000A6F29C474FF08058DFF84C9012E000BF7B
:104F400000F08EFBF068C568281D00F02DFBA068FE
:104F5000401EA0606068401E606000F0A1FB284613
:104F6000FFF7A3FF60680028EAD138680128F9D963
:104F7000C9F80080BFF34F8FBFF36F8FF2E70000D7
:104F800070090020B400002004ED00E070B51D465B
:104F9000049C51B1C4F80020C4E90F01012120464E
:104FA00000F002FE84F84C5070BD2460F4E700006D
:104FB0002DE9F05F8846DDE90B94154683469100A4
:104FC0009A460A9EA522206BFBF703FB6FF00301B4
:104FD000206B01EB8501084420F00707780707D014
:104FE000502080F31188BFF34F8FBFF36F8FFEE720
:104FF0000025B8F1000F0FD05FF00000221818F85C
:10500000001082F8341018F8001011B1401C10285C
:10501000F4D384F8435001E084F83450382E00D3A0
:105020003726E662C4E91365201D00F0F2FA04F1A8
:10503000180000F0EEFA2461C6F138006462A06145
:10504000656584F8585052465946384600F05AFA79
:105050002060B9F1000F01D0C9F80040BDE8F09F11
:1050600030B5114900E011460A688242FBD34B6813
:105070005C18844203D1406818444860084643687D
:105080001C18944209D1084C183C2468A24209D04B
:1050900052681A4442600A6812680260814200D075
:1050A000086030BD0460F9E72001002070B50024DD
:1050B00041600B4D0061914206D8D11A826991423C
:1050C00006D2011D286907E09A4203D2994201D312
:1050D000012403E0011DE86800F09EFA204670BD3F
:1050E000F000002010B5044600F0BAFAA06B28B119
:1050F0005FF0000400F0D4FA204610BD0124F9E767
:1051000030B589B03C4D6EE00498002806DADDE940
:105110000601059A90470498002864DB069C6069A4
:1051200010B1201D00F040FA03A800F0D7F80246A5
:1051300004980A2857D2DFE800F00505052D334A08
:1051400005052D3394F8280040F0010084F828006C
:105150000599A069059B01442046FFF7A7FF68B3A6
:10516000216A2046884794F8280040073BD5002054
:1051700000900598A169002342181946204601F0C5
:1051800065F9D8B9502080F31188BFF34F8FBFF372
:105190006F8FFEE714F8280F20F00100207022E046
:1051A00094F8280040F0010084F828000598A061D8
:1051B00028B1811813462046FFF778FF13E05020EE
:1051C00080F31188BFF34F8FBFF36F8FFEE794F822
:1051D0002800810703D4204600F076FA03E020F08F
:1051E000010084F82800002204A9286800F030FE9D
:1051F000002889D109B030BDF00000202DE9FC4124
:105200000F46054600F0B0FB01A800F067F8044621
:10521000019818B101F088F8BDE8FC81254EAFB1C6
:1052200030690068D0B30027291B3A46306800F087
:10523000CDFA01F079F80028EED11F494FF08050E7
:105240000860BFF34F8FBFF36F8FE5E7A542EBD840
:1052500001F06AF8F0682746C068C468201D00F0B5
:10526000A3F994F82800410719D5A0692B464119E4
:105270003A462046FFF71AFFA8B100200346014630
:1052800000902A46204601F0E1F860B9502080F3F2
:105290001188BFF34F8FBFF36F8FFEE707E020F059
:1052A000010084F82800216A20468847B4E70127D6
:1052B000BAE70000F000002004ED00E00648416B72
:1052C000096829B1416BC968C9684968816270473A
:1052D0004FF0FF31FAE70000B400002070B505463A
:1052E00000F040FF064E0446B068844203D200F04E
:1052F00009F8012000E0002028602046B46070BD5D
:10530000F0000020F8B5194D20E0C068C4680668B8
:10531000201D00F049F9216A2046884794F82800AA
:10532000400713D5A0693044B04206D924616060BB
:10533000211DE86800F070F908E0002003460146EE
:1053400000903246204601F081F838B1E8680168E3
:105350000029DAD12969C5E90310F8BD502080F38E
:105360001188BFF34F8FBFF36F8FFEE7F00000206F
:1053700008484068401C4FF0500080F3118804D06A
:10538000BFF34F8FBFF36F8FFEE7BFF34F8FBFF3B6
:105390006F8FFEE728010020074CE068016841B1EB
:1053A000C0680021D0F80000FFF728FFFFF7A8FE33
:1053B000F3E701210020F7E7F00000202DE9F0419C
:1053C000044600F04DF994F9455004F1240609E033
:1053D000606A48B1304600F06FFF08B100F046FA4D
:1053E0006D1E6DB2002DF3DC4FF0FF3684F8456082
:1053F00000F056F900F034F994F9445004F1100724
:1054000009E0206948B1384600F056FF08B100F0C5
:105410002DFA6D1E6DB2002DF3DC84F84460BDE8FA
:10542000F04100F03DB900002DE9F04105460027AC
:1054300000F09AFA324E306808B9FFF751FD7069F2
:1054400005424ED1C5B3083568070ED005F00700F8
:10545000C0F108000544680707D0502080F3118888
:10546000BFF34F8FBFF36F8FFEE72DB37068854298
:1054700037D82348183001460C6801E020460C4616
:105480006168A94202D221680029F7D131688C42B3
:1054900027D007682168016060680837411B102920
:1054A0000FD96019420708D0502080F31188BFF34C
:1054B0004F8FBFF36F8FFEE713E041606560FFF72A
:1054C000CFFD61687068401A7060B268904200D287
:1054D000B060706901430020C4E90001F068401C1D
:1054E000F06000F021FF780707D0502080F311888A
:1054F000BFF34F8FBFF36F8FFEE73846BDE8F081F3
:105500000801002010B5031F4FF080741C601B1FA2
:1055100021F001011960191F044B0B6014390A6056
:10552000091F6FF0020244380A6010BD7153000871
:1055300070B58AB00E460546144618216846FBF73A
:1055400072F8002D1CD02846FCF7FDFC002817D06F
:1055500000200290039008200096002106AA0490E3
:1055600034F8113002EB41001E0A491C0670C9B222
:1055700043700429F4D308AB69462846FCF767FB5F
:105580000AB070BD10B5002202210120FEF7D4FB45
:10559000002203210120FEF7CFFB00220521BDE8F8
:1055A00010400220FEF7C8BBD0E9013201699A60C1
:1055B000D0E901235A604A68824201D182684A6078
:1055C000002202610868401E0860086870470000F9
:1055D000034B036003F15C0008608020106070479B
:1055E000B00A0020044B036003F15C0008604FF434
:1055F00080701060704700000C0D002000F1080161
:105600004FF0FF32C0E90112C16001610021016069
:10561000704700210161704730B50B685A1C02D0F9
:1056200000F1080202E0026904E02246546825689D
:105630009D42FAD953684B6099608A605160086155
:105640000168491C016030BD42684A6093688B6004
:1056500093685960916008610168491C0160704756
:10566000502080F31188BFF34F8FBFF36F8F0A492B
:105670004868401C486001280CD10848006810F0B8
:10568000FF0F07D0502080F31188BFF34F8FBFF377
:105690006F8FFEE7704700002801002004ED00E056
:1056A0000849486828B1401E486001D180F311883C
:1056B0007047502080F31188BFF34F8FBFF36F8F77
:1056C000FEE700002801002070B500282AD0164D02
:1056D000A0F1080460686969084207D1502080F38E
:1056E0001188BFF34F8FBFF36F8FFEE722683AB187
:1056F000502080F31188BFF34F8FBFF36F8FFEE709
:105700008843606000F030F9606869680844686048
:105710002046FFF7A5FC2869401C2861BDE87040C1
:1057200000F002BE70BD0000080100204FF0E02034
:1057300000210161816105494FF47A720968B1FB6A
:10574000F2F1491E4161072101617047B00000205C
:1057500010B5FAF7F3FD114910280ED300F1E0203F
:1057600090F8F0030A78904207D2502080F3118815
:10577000BFF34F8FBFF36F8FFEE70948006889685A
:1057800000F4E060884207D9502080F31188BFF30D
:105790004F8FBFF36F8FFEE710BD00002801002080
:1057A0000CED00E010B5084B002200BF53F832406A
:1057B0001CB1521C082AF9D310BD43F8321003EB78
:1057C000C201486010BD00009404002070B5154669
:1057D0000E460446FFF744FF94F944100020491C8C
:1057E00001D184F8440094F94510491C01D184F892
:1057F0004500FFF755FFA06B28B92A46314604F152
:10580000240000F051F82046BDE87040FFF7D6BDF7
:1058100010B5020014D00F48006B38B1502080F34F
:105820001188BFF34F8FBFF36F8FFEE700F09CF836
:1058300000211046FFF72EFA00F076FD002807D170
:1058400005494FF080500860BFF34F8FBFF36F8F53
:1058500010BD0000B400002004ED00E002490A6A17
:105860000260C96841607047B4000020014901200E
:10587000C8617047B400002010B50C4650B109490A
:1058800009681831FFF7C8FE2046BDE81040012125
:10589000FFF700BA502080F31188BFF34F8FBFF39A
:1058A0006F8FFEE7B400002070B514460D4668B156
:1058B0000A4909681831FFF7C7FE0CB14FF0FF35F0
:1058C00021462846BDE87040FFF7E4B9502080F338
:1058D0001188BFF34F8FBFF36F8FFEE7B400002036
:1058E00030B587B00024039405AA04A903A8049442
:1058F000FFF76EFEDDE903010094CDE901100023FE
:1059000015A11748059A00F0F4FB164D0028E8622F
:105910001FD000F06BFD012809D0401C19D1502088
:1059200080F31188BFF34F8FBFF36F8FFEE75020D6
:1059300080F31188BFF34F8FBFF36F8F4FF0FF30AD
:10594000A86201206861EC6007B0BDE8304000F05B
:1059500047B807B030BD000049444C450000000086
:105960002D4F0008B40000200248016B491C016360
:1059700070470000B4000020164810B5016B11B14B
:105980000121C16110BD0021C1610169124A01E01C
:10599000B9B1491E01EB810352F82330002BF7D037
:1059A00001EB810302EB830202F1080453685B6898
:1059B0005360A34201D15B685360DA680260016101
:1059C00010BD502080F31188BFF34F8FBFF36F8F4E
:1059D000FEE70000B4000020D4040020FDF7D4FF4F
:1059E0001CB537480168374A914207D1502080F3EF
:1059F0001188BFF34F8FBFF36F8FFEE70068314907
:105A0000491E884207D1502080F31188BFF34F8F81
:105A1000BFF36F8FFEE72C4908780190FF200870D4
:105A200008788DF800009DF800009DF8002000F037
:105A3000F000904207D0502080F31188BFF34F8FC1
:105A4000BFF36F8FFEE79DF80000204C00F0500080
:105A500020700720A06005E09DF8002052008DF81E
:105A60000020401E9DF800201206F5D4A0600328F7
:105A700007D0502080F31188BFF34F8FBFF36F8F93
:105A8000FEE74FF44070A060019808700C48203089
:105A9000016841F470010160016841F070410160EA
:105AA000FFF744FE00206060FAF710FC0848016828
:105AB00041F040410160FAF7F5FB00201CBD0000F9
:105AC00000ED00E071C20F4100E400E02801002079
:105AD00034EF00E010B5502080F31188BFF34F8FF2
